:080000005F000F0C0500FF0C6E
:080008000600FF0C07001000C8
:080010002E0BFF0C2A00FF0C6F
:080018002900FF0C2800650718
:0800200010005C0B2506790BB2
:08002800E8020F0AE9020D0ACB
:08003000EA020B0A0C00FF0CB0
:080038002A00FF0C2900FF0C57
:080040002800650710005C0BAD
:08004800E802210AE9021F0A87
:08005000EA021D0A0C000A0C73
:080058002800E8022D0A0C004B
:080060000F0C2800E802320A2F
:080068000C0045053B0C2A00C9
:08007000D40C29006502030C09
:080078002800E8023D0AE9023C
:080080003B0AEA02380A0C00F9
:0800880045043B0C2A00D40CD6
:08009000290065078D0B030C2C
:080098002800E8024D0AE9020C
:0800A0004B0AEA02470A0C00BA
:0800A800E2015308430845087A
:0800B00041085308430845080C
:0800B8004908530843084508FC
:0800C0004508410C95004306C0
:0800C8006A0A450C950043068D
:0800D0006C0A6F0A7000710A4E
:0800D800080C3000710A040C51
:0800E00030005F000B0C05006D
:0800E800040C2C001002540965
:0800F0002D006D02080C2E002A
:0800F8004409440935092D03F8
:080100000306850A0307440908
:08010800860A3509EE027F0AA8
:08011000B002EC02760A45047E
:08011800160C2B004409EB0258
:080120008E0A5F000F0C0500C0
:080128000C000506950A0C000D
:0801300065075C0B0506980A47
:080138000000600C8700430782
:08014000980A9509000C8700E4
:080148004307980A9509040C15
:0801500087004307980A950996
:08015800080C87004307980A18
:080160000506B00A0000060CC0
:0801680087004307B00A320CC6
:0801700096004306E50A350C78
:0801780096004306D20A0506B9
:08018000BF0A0000E00C87003B
:080188004307BF0A9509030CAF
:0801900087004307B00A2B09A8
:0801980067005F00000C070086
:0801A0001100450A0506D20A10
:0801A8000000E00C8700430792
:0801B000D20A9509030C870037
:0801B8004307B00A2B096700A0
:0801C0005F00000C07001100B4
:0801C800D60A0506E50A000055
:0801D000E00C87004307E50A7B
:0801D8009509030C87004307A1
:0801E000B00A2B0967005F0063
:0801E800000C07001200050BDA
:0801F00065075C0B0506F80A27
:0801F8000000AF0C8700430773
:08020000F80A95091E0C8700A5
:080208004307F80A9509080CF0
:0802100087004307F80A3009DA
:0802180067005F00000C070005
:080220001200030965075C0BE5
:080228000506120B0000AF0CEB
:0802300087004307120B95093A
:080238001E0C87004307120BA6
:080240009509080C8700430733
:08024800120B300967005F0092
:08025000000C07001200030975
:080258001300470B05062E0BF5
:08026000320C870043072E0B4E
:080268009509300C87004307E3
:080270002E0B9509310C8700EB
:0802780043072E0B9509070254
:0802800036000506410B0000E9
:08028800300C87004307410B15
:0802900095090702350005067F
:080298004B0B0000300C870045
:0802A00043074B0B9509300CDC
:0802A800870043074B0B950989
:0802B0000702370065078D0B02
:0802B800980A1100080925074E
:0802C000650B65075C0B2506C8
:0802C800610B1B092506610B07
:0802D0008606710B1300FE0904
:0802D800320C97004306F80AFE
:0802E000120B09091300B1091A
:0802E800320C97004306F80AEE
:0802F000120B65075C0B2507EA
:0802F800790B65075C0B25067C
:080300007D0B09098606880B3C
:080308001300FE091300470B6E
:0803100009091300B1091300F3
:08031800470B230C3200410CDD
:0803200095004306C90B5F00C4
:080328000F0C050025068D0BEA
:08033000610965078D0B8606CB
:08033800990BF202980B650716
:080340008D0B8606C90B350C7C
:08034800870043079F0B950994
:080350002E0C870043079F0BF0
:080358009509300C87004307F2
:080360009F0B9509200C87009A
:0803680043079F0B0506B60BCD
:080370000000200C8700430788
:08037800B60B410C27005F00E9
:08038000000C0700060C280028
:08038800E802C40B5F00FF0C4A
:080390000700610965078D0BF0
:060398008606CA0BC90B2A
:0803F0005508200847084F08DA
:0803F800540820084D084508D7
:080400000B0C2800E802020ABF
:080408000C000506050A0C00BA
:08041000650710005C0BA20C53
:0804180087004307080A0509EB
:08042000930C87004307080A52
:08042800050907023800860CEB
:0804300098004306230AB50CF5
:0804380098004306230AA90CF9
:0804400098004307080A0506B5
:08044800230A0000270C8700C5
:080450004307230A080C2700F2
:080458005F00000C070005061F
:080460002F0A080C2700050714
:08046800330A000C270005090E
:08047000E00C27000509030C54
:080478002700050967000009D7
:0804800000005F00FF0C070003
:080488000D000507450A200CD8
:0804900027000509000C2700FC
:080498000509030C270005090A
:0804A0003C0C27000509E40CE7
:0804A80027000509240C2700C0
:0804B0000509620C2700050993
:0804B800340C27000509000CBB
:0804C00027000509000C2700CC
:0804C8000509400C270005099D
:0804D000AC0C27000509000C2B
:0804D80027000509100C2700A4
:0804E0000509100C27000509B5
:0804E8003C0C27000509050C7E
:0804F00027000509000C27009C
:0804F8000509110C270005099C
:08050000360C27000509F40C7C
:0805080027000509220C270061
:080510000509620C2700050932
:08051800340C27000509000C5A
:0805200027000509000C27006B
:080528000509510C270005092B
:08053000AC0C27000509140CB6
:0805380027000509000C270053
:080540000509110C2700050953
:08054800360C270005090C0C1C
:0805500027000509230C270018
:080558000509620C27000509EA
:08056000340C27000509000C12
:0805680027000509000C270023
:080570000509510C27000509E3
:08057800AC0C27000509070C7B
:0805800027000509000C27000B
:080588000509030C2700050919
:08059000240C270005090C0CE6
:0805980027000509000C2700F3
:0805A00005095F00FF0C0700D4
:0805A80010005D0B0507D60AE7
:0805B000200C27000509000CD6
:0805B80027000509030C2700D0
:0805C00005093C0C27000509A8
:0805C800000C27000509100CCE
:0805D00027000509100C2700AB
:0805D80005093C0C2700050990
:0805E000040C27000509000CC2
:0805E80027000509100C270093
:0805F0000509360C270005097E
:0805F800080C270005090C0C9A
:0806000027000509110C270079
:0806080005093C0C270005095F
:08061000A40C27000509210CD0
:0806180027000509620C270010
:080620000509340C270005094F
:08062800040C27000509090C70
:0806300027000509320C270028
:080638000509360C2700050935
:08064000000C27000509000C65
:0806480027000509520C2700F0
:080650000509AC0C27000509A7
:08065800440C27000509250CE4
:0806600027000509620C2700C8
:080668000509340C2700050907
:08067000000C27000509000C35
:0806780027000509500C2700C2
:080680000509AC0C2700050977
:08068800D80C27000509240C21
:0806900027000509620C270098
:080698000509340C27000509D7
:0806A000000C27000509000C05
:0806A80027000509500C270092
:0806B0000509AC0C2700050947
:0806B800880C27000509220C43
:0806C00027000509620C270068
:0806C8000509340C27000509A7
:0806D000DE0C27000509080CEF
:0806D80027000509320C270080
:0806E0000509360C270005098D
:0806E800000C27000509000CBD
:0806F00027000509520C270048
:0806F8000509AC0C27000509FF
:08070000D80C27000509230CA9
:0807080027000509620C27001F
:080710000509340C270005095E
:08071800000C27000509000C8C
:0807200027000509500C270019
:080728000509AC0C27000509CE
:080730000C0C27000509230C45
:0807380027000509620C2700EF
:080740000509340C270005092E
:08074800000C27000509000C5C
:0807500027000509400C2700F9
:080758000509AC0C270005099E
:08076000070C27000509000C3D
:0807680027000509030C27001E
:080770000509240C270005090E
:080778000C0C270005095F00CD
:08078000FF0C070010005D0BE7
:0807E0004D08490843082D08EB
:0807E8004B08570853082D08C7
:0807F00032083008300832081D
:0807F8002D08520826084408F0
:080800000506000A0C000507C3
:08080800030A200C270000097F
:08081000380C27000009110C4F
:0808180027000009000C270075
:080820000009000C270000098B
:08082800600C27000009030C1D
:0808300027000009240C270039
:080838000009000C2700000973
:08084000000C27000009E20C86
:0808480027000009900C2700B5
:080850000009000C270000095B
:08085800000C27000009E40C6C
:0808600027000009900C27009D
:080868000009FF0C2700000944
:08087000FF0C27000009630CD6
:0808780027000009240C2700F1
:080880000009260C2700000905
:08088800200C27000009820C7E
:0808900027000009000C2700FD
:080898000009000C2700000913
:0808A000000C27000009E40C24
:0808A80027000009A00C270045
:0808B0000009FB0C2700000900
:0808B800FF0C27000009610C90
:0808C00027000009040C2700C9
:0808C8000009010C27000009E2
:0808D000000C27000009E70CF1
:0808D80027000009240C270091
:0808E0000009D00C27000009FB
:0808E800800C27000009800CC0
:0808F00027000009AF0C2700EE
:0808F80000092E0C2700000985
:08090000010C27000009220C84
:0809080027000009920C2700F2
:0809100000092F0C270000096B
:08091800010C27000009230C6B
:0809200027000009920C2700DA
:080928000009260C270000095C
:08093000100C27000009430C24
:0809380027000009000C270054
:0809400000091A0C2700000950
:08094800000C27000009030C5C
:0809500027000009240C270018
:080958000009030C270000094F
:08096000000C27000009430C04
:0809680027000009140C270010
:080970000009010C2700000939
:08097800000C27000009070C28
:0809800027000009240C2700E8
:080988000009BD0C2700000965
:08099000050C27000009040C0E
:0809980027000009080C2700EC
:0809A0000009CC0C270000093E
:0809A800800C27000009870CF8
:0809B00027000009AF0C27002D
:0809B8000009000C27000009F2
:0809C000000C27000009070CE0
:0809C80027000009240C2700A0
:0809D0000009BD0C270000091D
:0809D800050C27000009040CC6
:0809E00027000009080C2700A4
:0809E8000009CC0C27000009F6
:0809F000800C27000009870CB0
:0809F80027000009AF0C2700E5
:080A000000095F00FF0C070074
:080A08000D000507050B200C91
:080A100027000009000C27007B
:080A18000009030C270000098E
:080A20003C0C27000009000C4A
:080A280027000009100C270053
:080A30000009100C2700000969
:080A38003C0C27000009040C2E
:080A400027000009000C27004B
:080A48000009100C2700000951
:080A5000360C27000009080C18
:080A5800270000090C0C270027
:080A60000009110C2700000938
:080A68003C0C27000009840C7E
:080A700027000009220C2700F9
:080A78000009620C27000009CF
:080A8000340C27000009380CBA
:080A880027000009090C2700FA
:080A90000009320C27000009E7
:080A9800360C27000009000CD8
:080AA00027000009000C2700EB
:080AA8000009520C27000009AF
:080AB000AC0C27000009980CB2
:080AB80027000009250C2700AE
:080AC0000009620C2700000987
:080AC800340C27000009000CAA
:080AD00027000009000C2700BB
:080AD8000009500C2700000981
:080AE000AC0C27000009040C16
:080AE80027000009260C27007D
:080AF0000009620C2700000957
:080AF800340C27000009000C7A
:080B000027000009000C27008A
:080B08000009500C2700000950
:080B1000AC0C27000009500C99
:080B180027000009230C27004F
:080B20000009620C2700000926
:080B2800340C27000009120C37
:080B300027000009090C270051
:080B38000009320C270000093E
:080B4000360C27000009000C2F
:080B480027000009000C270042
:080B50000009520C2700000906
:080B5800AC0C27000009A80CF9
:080B600027000009240C270006
:080B68000009620C27000009DE
:080B7000340C27000009000C01
:080B780027000009000C270012
:080B80000009500C27000009D8
:080B8800AC0C27000009D80C99
:080B900027000009230C2700D7
:080B98000009620C27000009AE
:080BA000340C27000009000CD1
:080BA80027000009000C2700E2
:080BB0000009400C27000009B8
:080BB800AC0C27000009070C3A
:080BC00027000009000C2700CA
:080BC8000009030C27000009DD
:080BD000240C270000090C0CA5
:080BD800270000095F00FF0C7B
:060BE000070010005D0B90
:080BF0005508200847084F08D2
:080BF800540820084D084508CF
:080C0000E2018308C308A50806
:080C0800010803082608260874
:080C1000A008260806082508CB
:080C18002508630863080008C9
:080C20008408E20141084108CB
:080C2800E608C60805082708CC
:080C30002308A408610807086D
:080C38002108210840084008D2
:080C400000088408E201270806
:080C4800A708A2080208270812
:080C5000250821088108210894
:080C5800030864086408430866
:080C60004308000884080C0C95
:080C68002800E802350A0C0027
:080C70000506380A0C00020C15
:080C78002900E9023D0A0C000D
:080C80006606400A0000660749
:080C8800430AEF02400A0C00D0
:080C90006606480A3B090C004E
:080C980070005F00180C06005B
:080CA00010020009260000000B
:080CA8006606530AB002F102D6
:080CB000500A000000005F0083
:080CB800FF0C06000C007000A7
:080CC0005F00180C0600100291
:080CC800220926000000660667
:080CD000660AB002F102630A9A
:080CD800000000005F00FF0CAA
:080CE00006000C0070005F002B
:080CE800180C060010021109AE
:080CF000260000006606790AE7
:080CF800B002F102760A0000CF
:080D000000005F00FF0C06007B
:080D08000C006606850AE20CEE
:080D100086004307850A3B0938
:080D180066068C0AE20C86005D
:080D200043078C0A3B0966063B
:080D2800930AE20C8600430768
:080D3000930A3B090C00660662
:080D38009B0AF20C8600430740
:080D40009B0A3B096606A20AAA
:080D4800F20C86004307A20A29
:080D50003B096606A90AF20C3A
:080D580086004307A90A3B09CC
:080D60000C00650710005C0B9C
:080D68006606B10A100C8600BA
:080D70004307B10A6607BA0A45
:080D78006606BC0AF70C8600B8
:080D80004307B10A3B096606B6
:080D8800C30A140C86004307A6
:080D9000B10A3B09050C2F001C
:080D980040096606CD0A100CAB
:080DA00086004307B10A3B097C
:080DA800A60C26005F00180CE8
:080DB000060048095F00FF0C7A
:080DB80006006606DD0A360C98
:080DC00086004307B10A3B095C
:080DC8006606E40A320C860005
:080DD0004307B10A0F0C3100CA
:080DD8009B09020C2F004009E9
:080DE000410C95004306FA0ADC
:080DE800450C95004306FC0ACE
:080DF0004C090D005F090D0024
:080DF80072090D0065071000EF
:080E00005C0B6606FE0A000C03
:080E080086004307FE0A00000A
:080E10006606080B440C860085
:080E18004307FE0A3B096606D0
:080E20000F0B000C86004307D4
:080E2800FE0A3B09090C2F0032
:080E300040096606190B000CD5
:080E380086004307FE0A020CCC
:080E40002F0040090000840CA2
:080E480026005F00180C0600F3
:080E500048095F00FF0C0600D9
:080E5800000066062D0B240CBE
:080E600086004307FE0A0F0C97
:080E680031008509020C2F0086
:080E70004009410C9500430606
:080E7800430B450C95004306F5
:080E8000450B4C090D005F0950
:080E88000D0072090D00650761
:080E900010005C0B25061000A8
:080E9800790BA20C870043074F
:080EA000470B3809930C870091
:080EA8004307470B380907025C
:080EB0003800860C980043068F
:080EB800650BB50C9800430620
:080EC000650BA90C9800430723
:080EC800470B0506650B000055
:080ED000270C87004307650BA6
:080ED800080C27005F00000C6C
:080EE00007000506710B080C68
:080EE80027000507750B000C43
:080EF00027003809E00C27007F
:080EF8003809030C270038093A
:080F00005F00FF0C0700470B26
:080FD0004D08490843082D08F3
:080FD8004B08570853082D08CF
:080FE000320830083008320825
:080FE8002D08520826084408F8
:020FFE00000AE7
:08200000FF0FFF0FFF0FFF0FA0
:08200800FF0FFF0FFF0FFF0F98
:08201000FF0FFF0FFF0FFF0F90
:08201800FF0FFF0FFF0FFF0F88
:10202000FA0FFF0FFFFF04ABFA0280F0FFFF000082
:00000001FF
