:020000020000FC
:100000003A323030303030303030413030303330D0
:1000100030303530303043303030363030304330AF
:1000200030303730303031303030373030304330AE
:100030003030383030304330303042303030433080
:1000400030304130303034303035430D0A3A3230C0
:10005000303032303030303130303032303030319A
:10006000303030353030303430303035303030357D
:10007000303030373030303630303031303030435F
:100080003030304330303038303030433030304230
:1000900030303043303035380D0A3A323030303479
:1000A000303030304130303034303030313030303A
:1000B000323030303430303039303030353030302C
:1000C000343030303630303036303030433030300D
:1000D0003630303041303030343030303530303000
:1000E00043303033430D0A3A32303030363030301E
:1000F00030333030304130303034303030423030D6
:1001000030433030303430303034303030383030CC
:1001100030353030304230303031303030463030B1
:1001200030413030303430303034303030353030B1
:1001300031310D0A3A3230303038303030303230F0
:100140003030363030303130303043303030353090
:10015000303034303030383030303530303042307C
:10016000303034303030453030304630303041304F
:100170003030343030303330303035303046330D7D
:100180000A3A32303030413030303035303030366D
:10019000303030393030304330303044303030451A
:1001A0003030304630303039303030443030304507
:1001B0003030304630303039303030353030304506
:1001C0003030304630303039303038460D0A3A322F
:1001D00030303043303030303930303039303030FA
:1001E00043303030313030303630303044303030E1
:1001F00043303030313030303030303033303030E8
:1002000037303030433030303430303033303030CD
:100210004330303038303042300D0A3A32303030EE
:10022000453030303033303030413030303730309E
:100230003035303030383030304530303033303099
:100240003038303030463030303930303034303083
:100250003043303030393030303930303046303063
:100260003043303037310D0A3A32303031303030AF
:100270003030353030303730303034303030393065
:100280003030343030304630303032303030323050
:10029000303039303030303030304230303035303E
:1002A0003030423030303930303039303030373023
:1002B0003037320D0A3A323030313230303030435C
:1002C0003030304130303033303030353030304302
:1002D00030303033303030363030304330303034FE
:1002E00030303032303030333030304230303030F7
:1002F00030303041303030463030303030303533CF
:100300000D0A3A3230303134303030304230303013
:1003100035303030433030304630303030303030AF
:100320004230303035303030383030304630303098
:1003300030303030423030303530303034303030A2
:10034000463030303030303042303031460D0A3AAD
:100350003230303136303030303330303031303090
:100360003030303030413030304630303030303066
:100370003031303030443030304630303031303051
:100380003031303030413030304630303031303044
:10039000303530303033303032310D0A3A3230308F
:1003A000313830303030453030303030303032302D
:1003B000303046303030303030304530303035300D
:1003C0003030463030304630303030303030313000
:1003D00030303030303031303030413030304330F8
:1003E000303037303046300D0A3A3230303141301B
:1003F00030303030303030423030303330303035E3
:1004000030303030303030323030304630303030D4
:1004100030303035303030353030304630303046A6
:1004200030303030303030313030303030303031CA
:10043000303046310D0A3A323030314330303030CE
:100440004130303043303030373030303030303081
:100450003130303033303030313030303030303097
:100460003230303046303030303030303130303073
:100470003530303046303030463030303030304338
:10048000380D0A3A3230303145303030303130308A
:100490003030303030313030304130303043303037
:1004A0003037303030333030304530303034303029
:1004B0003032303030333030304430303030303023
:1004C00030393030304630303030303041310D0A44
:1004D0003A323030323030303030443030303530F5
:1004E00030303330303046303030303030304430DF
:1004F00030303530303034303030463030303030DD
:1005000030304430303041303030313030304130B4
:1005100030304330303037303036300D0A3A3230F8
:1005200030323230303030333030304130303034AF
:1005300030303032303030333030303830303030AE
:100540003030303930303046303030303030303884
:10055000303030353030303330303046303030307D
:1005600030303038303036310D0A3A3230303234B3
:10057000303030303530303034303030463030305C
:100580003030303038303030413030303130303051
:10059000413030304330303037303030333030302D
:1005A0004130303032303030433030303330303022
:1005B00037303033310D0A3A323030323630303065
:1005C00030443030304630303030303030373030FA
:1005D00030353030304630303046303030303030EA
:1005E00030373030303530303045303030463030D4
:1005F00030303030303730303035303030353030EA
:1006000046450D0A3A3230303238303030303530ED
:1006100030303330303045303030303030304630AC
:10062000303046303030303030304530303035309A
:1006300030303530303036303030333030303430A8
:100640003030303030304630303046303045370D85
:100650000A3A32303032413030303030303030349D
:100660003030303530303046303030463030303059
:100670003030303430303035303030353030303468
:10068000303030343030304530303042303030303F
:100690003030303130303030303045370D0A3A327A
:1006A0003030324330303030383030303430303029
:1006B0003230303031303030433030303330303021
:1006C00031303030433030303830303044303030FA
:1006D00032303030433030304430303045303030DC
:1006E0003130303044303041370D0A3A3230303218
:1006F00045303030303830303030303030323030DB
:1007000030463030304430303045303030313030A9
:1007100030443030303830303034303030323030B7
:1007200030303030303530303034303030323030BE
:100730003031303041320D0A3A32303033303030DF
:10074000303031303030303030303830303042308E
:10075000303032303030433030303230303043306F
:10076000303030303030323030304630303032306F
:100770003030433030304430303031303030393048
:100780003037370D0A3A3230303332303030304380
:10079000303030313030304530303041303030332F
:1007A0003030303530303031303030453030304519
:1007B0003030303430303045303030383030304206
:1007C00030303046303030413030303430303331FA
:1007D0000D0A3A323030333430303030453030303A
:1007E00038303030453030304130303046303030C5
:1007F00030303030443030303530303030303030E0
:1008000046303030303030304430303035303030B9
:10081000463030304630303030303030460D0A3AD5
:1008200032303033363030303044303030353030A4
:100830003045303030463030303030303044303079
:10084000303330303036303030303030304530308A
:100850003046303030303030303630303039303073
:10086000303530303041303046440D0A3A32303085
:100870003338303030304330303037303030413042
:10088000303041303030343030303330303041303F
:100890003030433030303730303045303030343025
:1008A0003030453030303830303044303030453002
:1008B000303046303043300D0A3A32303033413038
:1008C00030303046303030463030304630303046D0
:1008D00030303046303030463030304630303046C0
:1008E00030303046303030463030304630303046B0
:1008F00030303046303030463030304630303046A0
:10090000303034440D0A3A323030334330303030F6
:10091000463030304630303046303030463030307F
:10092000463030304630303046303030463030306F
:10093000463030304630303046303030463030305F
:10094000463030304630303046303030463030324D
:10095000440D0A3A32303033453030303046303092
:10096000304630303046303030463030304630302F
:10097000304630303046303030463030303830302D
:100980003041303030423030303330303039303038
:1009900030413030303130303039303034380D0A79
:1009A0003A3230303430303030303730303041301F
:1009B0003030343030303830303043303030333015
:1009C00030304630303043303030343030303130F9
:1009D00030303230303034303030463030303030FB
:1009E00030303230303043303036440D0A3A323015
:1009F00030343230303030363030304630303030D5
:100A000030303032303030433030303530303042BA
:100A100030303032303030313030303130303042C0
:100A200030303032303030313030303130303042B0
:100A300030303046303035430D0A3A3230303434BD
:100A400030303030313030303030303032303030A3
:100A50003330303042303030303030303930303078
:100A6000463030303030303042303030343030305A
:100A70003530303041303030433030303730303046
:100A800033303033460D0A3A32303034363030307D
:100A90003037303030343030303530303032303044
:100AA000304130303043303030353030304330300A
:100AB0003032303030353030304330303046303006
:100AC0003035303030433030303130303039303004
:100AD00030360D0A3A323030343830303030303041
:100AE00030304130303043303030373030304430C7
:100AF00030303230303042303030453030303530C8
:100B000030304330303043303030353030304330A7
:100B10003030463030303530303043303043390DAE
:100B20000A3A3230303441303030303330303035C2
:100B30003030304330303036303030353030304384
:100B40003030304130303035303030433030303874
:100B50003030303530303043303030423030303566
:100B60003030304330303043303042350D0A3A3285
:100B70003030344330303030353030304330303046
:100B80004330303035303030433030303830303032
:100B90003530303043303030413030303530303027
:100BA0004330303043303030353030304330303007
:100BB0004430303035303038420D0A3A323030343B
:100BC00045303030304330303044303030353030E4
:100BD00030433030303330303035303030433030E7
:100BE00030393030303530303043303030433030D1
:100BF00030353030304330303043303030353030C5
:100C00003043303036410D0A3A32303035303030F2
:100C100030303930303035303030433030303730AC
:100C20003030353030304330303043303030353094
:100C30003030433030303830303035303030433081
:100C40003030423030303530303043303030433067
:100C50003034420D0A3A32303035323030303035AF
:100C60003030304330303043303030353030304346
:100C70003030303830303035303030433030304143
:100C8000303030353030304330303039303030353E
:100C90003030304330303043303030353030324512
:100CA0000D0A3A3230303534303030304330303065
:100CB0004330303035303030433030303930303000
:100CC0003530303043303030303030303530303007
:100CD00043303030443030303530303043303030D5
:100CE000383030303530303043303031300D0A3A22
:100CF00032303035363030303042303030353030D0
:100D000030433030304330303035303030433030A5
:100D100030433030303530303043303030383030A0
:100D20003035303030433030304130303035303095
:100D3000304330303042303045360D0A3A323030B0
:100D4000353830303030353030304330303043306B
:100D50003030353030304330303046303030353060
:100D60003030433030304130303035303030433047
:100D70003030303030303530303043303030433048
:100D8000303035303044300D0A3A32303035413071
:100D90003030304330303041303030433030303715
:100DA000303030313030303330303032303030313C
:100DB00030303045303030353030304330303043F3
:100DC00030303035303030433030304630303035F0
:100DD000303042420D0A3A32303035433030303014
:100DE00043303030333030303530303043303030D5
:100DF00043303030353030304330303044303030B4
:100E000035303030433030304430303035303030B1
:100E1000433030303330303035303030433030389C
:100E2000450D0A3A323030354530303030383030C8
:100E30003035303030433030304330303035303082
:100E40003043303030443030303530303043303063
:100E5000303930303035303030433030303430306D
:100E600030353030304330303030303037380D0AA4
:100E70003A32303036303030303035303030433048
:100E80003030433030303530303043303030333034
:100E90003030353030304330303032303030353033
:100EA0003030433030304630303035303030433001
:100EB00030303830303035303035380D0A3A323055
:100EC00030363230303030433030304230303035F0
:100ED00030303043303030383030303530303043DF
:100EE00030303035303030353030304330303044D1
:100EF00030303035303030433030303930303035CC
:100F000030303043303032420D0A3A3230303634ED
:100F100030303030433030303530303043303030A6
:100F20004330303035303030433030304230303084
:100F30003530303043303030413030303530303083
:100F40004330303043303030353030304330303063
:100F500042303030310D0A3A3230303636303030AF
:100F6000303530303043303030383030303530305C
:100F70003043303030423030303530303043303034
:100F80003043303030353030304330303043303023
:100F9000303530303043303030393030303530302B
:100FA00045430D0A3A323030363830303030433035
:100FB00030304130303035303030433030303930FF
:100FC00030303530303043303030413030303530F3
:100FD00030304330303038303030353030304330DE
:100FE0003030423030303530303043303043390DDE
:100FF0000A3A3230303641303030304330303035DC
:1010000030303043303030433030303530303043A2
:10101000303030393030303530303043303030419E
:101020003030303530303043303030433030303590
:101030003030304330303043303041320D0A3A32B4
:10104000303036433030303035303030433030306F
:10105000383030303530303043303030423030305E
:10106000353030304330303046303030353030304D
:101070004330303034303030353030304330303041
:101080004430303035303038440D0A3A3230303662
:10109000453030303043303030393030303530301A
:1010A0003043303030433030303530303043303002
:1010B00030433030303530303043303030423030F3
:1010C00030353030304330303041303030353030F2
:1010D0003043303036330D0A3A323030373030302A
:1010E00030303930303035303030433030304430CB
:1010F00030303530303043303030383030303530CB
:1011000030304330303042303030353030304330A2
:101110003030433030303530303043303030433091
:101120003034330D0A3A32303037323030303035E7
:10113000303030433030303930303035303030437B
:101140003030304130303035303030433030303076
:10115000303030353030304330303044303030355E
:101160003030304330303038303030353030333755
:101170000D0A3A323030373430303030433030308E
:101180004230303035303030433030304330303022
:10119000353030304330303043303030353030301F
:1011A000433030303830303035303030433030300C
:1011B000413030303530303043303030330D0A3A42
:1011C00032303037363030303042303030353030F9
:1011D00030433030304330303035303030433030D1
:1011E00030463030303530303043303030413030C0
:1011F00030353030304330303030303030353030D2
:10120000304330303041303045410D0A3A323030D1
:1012100037383030303043303030373030303130A4
:101220003030333030304630303046303030463079
:101230003030463030304630303046303030463056
:101240003030463030304630303046303030463046
:10125000303046303038450D0A3A32303037413080
:101260003030304630303046303030463030304626
:101270003030304630303046303030463030304616
:101280003030304630303046303030463030304606
:1012900030303046303030463030304630303046F6
:1012A000303034390D0A3A32303037433030303054
:1012B00046303030463030304630303046303030D6
:1012C00046303030463030304630303046303030C6
:1012D00046303030463030304630303046303030B6
:1012E00046303030463030304630303046303032A4
:1012F000390D0A3A32303037453030303031303005
:1013000030353030304630303037303030373030B4
:101310003041303030453030303730303039303097
:101320003042303030423030303930303037303089
:1013300030463030304330303038303036350D0ABA
:101340003A32303038303030303033303030413075
:10135000303043303030323030303930303045305A
:101360003030353030303930303037303030353063
:101370003030393030304330303035303030393043
:1013800030304330303035303035380D0A3A323075
:101390003038323030303039303030433030303522
:1013A0003030303930303041303030353030303915
:1013B00030303046303030353030303930303041F8
:1013C00030303035303030393030304330303035F7
:1013D00030303039303032450D0A3A32303038341E
:1013E00030303030433030303530303039303030DC
:1013F00030303030353030303930303035303030DA
:1014000035303030393030304330303035303030B6
:1014100039303030433030303530303039303030A2
:1014200036303032330D0A3A3230303836303030E0
:101430003035303030393030303530303035303094
:101440003039303030433030303530303039303072
:101450003043303030353030303930303039303062
:101460003035303030393030304130303035303058
:1014700046440D0A3A323030383830303030393066
:101480003030383030303530303039303030453031
:101490003030353030303930303036303030353033
:1014A0003030393030304330303035303030393012
:1014B0003030433030303530303039303044350D15
:1014C0000A3A323030384130303030433030303505
:1014D00030303039303030363030303530303039EF
:1014E00030303036303030353030303930303038E0
:1014F00030303035303030393030304330303035C6
:101500003030303930303042303042420D0A3A32D9
:1015100030303843303030303530303039303030A2
:101520003830303035303030393030304430303091
:101530003530303039303030433030303530303085
:10154000393030303530303035303030393030307F
:101550004130303035303039440D0A3A323030388D
:101560004530303030393030303130303035303057
:101570003039303030343030303530303039303050
:101580003034303030353030303930303039303040
:101590003035303030393030303030303035303038
:1015A0003039303039370D0A3A3230303930303056
:1015B00030304430303035303030393030304330F6
:1015C0003030353030303930303037303030353001
:1015D00030303930303031303030353030303930F3
:1015E00030304430303035303030393030304430C5
:1015F0003035360D0A3A323030393230303030350D
:1016000030303039303030373030303530303039BC
:1016100030303038303030353030303930303044A0
:101620003030303530303039303030423030303595
:10163000303030393030304330303035303033397D
:101640000D0A3A32303039343030303039303030C1
:101650003730303035303030393030304330303062
:101660003530303039303030463030303530303051
:101670003930303041303030353030303930303042
:10168000463030303530303039303030440D0A3A61
:101690003230303936303030304330303035303021
:1016A0003039303030423030303530303039303011
:1016B00030393030303530303039303030443030FF
:1016C00030353030303930303043303030353030F4
:1016D000303930303042303045440D0A3A32303003
:1016E00039383030303035303030393030304130CA
:1016F00030303530303039303030413030303530C6
:1017000030303930303039303030353030303930B9
:1017100030303830303035303030393030303430AF
:10172000303035303045330D0A3A323030394130BF
:10173000303030393030304330303035303030397F
:101740003030303430303035303030393030303384
:10175000303030353030303930303039303030356D
:10176000303030393030304330303035303030394F
:10177000303043300D0A3A32303039433030303077
:101780004330303035303030393030304230303026
:101790003530303039303030413030303530303025
:1017A0003930303041303030353030303930303011
:1017B0003930303035303030393030303830303901
:1017C000350D0A3A3230303945303030303530302E
:1017D00030393030303430303035303030393030EE
:1017E00030433030303530303039303030343030D4
:1017F00030353030303930303033303030353030D3
:1018000030393030303930303035303038430D0AEF
:101810003A32303041303030303039303030413091
:101820003030433030303730303044303030323088
:101830003030453030304530303035303030393070
:101840003030433030303530303039303030463061
:1018500030303530303039303034300D0A3A3230B3
:101860003041323030303033303030353030303954
:101870003030304330303035303030393030304433
:101880003030303530303039303030443030303531
:10189000303030393030303330303035303030392E
:1018A00030303038303033430D0A3A323030413442
:1018B0003030303035303030393030304330303007
:1018C00035303030393030304430303035303030F1
:1018D00039303030393030303530303039303030E8
:1018E00034303030353030303930303030303030E6
:1018F00035303032350D0A3A323030413630303002
:1019000030393030304330303035303030393030AD
:1019100030333030303530303039303030303030B6
:101920003035303030393030304330303035303091
:101930003039303030383030303530303039303088
:1019400030340D0A3A3230304138303030304230A5
:10195000303035303030393030303730303035306D
:10196000303039303030353030303530303039305B
:10197000303044303030353030303930303039303C
:101980003030353030303930303043303044370D3E
:101990000A3A323030414130303030353030303931
:1019A0003030304330303035303030393030304204
:1019B0003030303530303039303030413030303503
:1019C00030303039303030443030303530303039EC
:1019D0003030304230303035303042320D0A3A3219
:1019E00030304143303030303930303038303030C2
:1019F00035303030393030304230303035303030C2
:101A000039303030433030303530303039303030AC
:101A1000433030303530303039303030393030309C
:101A20003530303039303039330D0A3A32303041C8
:101A30004530303030413030303530303039303072
:101A40003038303030353030303930303038303078
:101A5000303530303039303030383030303530306B
:101A6000303930303042303030353030303930304D
:101A70003043303037370D0A3A3230304230303070
:101A80003030353030303930303043303030353030
:101A90003030393030303930303035303030393026
:101AA000303041303030353030303930303039300E
:101AB00030303530303039303030443030303530FF
:101AC0003035350D0A3A323030423230303030392C
:101AD00030303038303030353030303930303042DE
:101AE00030303035303030393030304630303035CD
:101AF00030303039303030353030303530303039CA
:101B000030303044303030353030303930303332AE
:101B10000D0A3A32303042343030303039303030E3
:101B2000353030303930303043303030353030308F
:101B3000393030304330303035303030393030307B
:101B40004230303035303030393030304130303064
:101B5000353030303930303045303030420D0A3A8F
:101B6000323030423630303030353030303930304D
:101B7000304130303035303030393030303830303E
:101B80003035303030393030304230303035303030
:101B9000303930303043303030353030303930301B
:101BA000304330303035303046350D0A3A3230303F
:101BB00042383030303039303030393030303530F4
:101BC00030303930303041303030353030303930ED
:101BD00030303930303035303030393030304430DA
:101BE00030303530303039303030383030303530DA
:101BF000303039303044350D0A3A323030424130DD
:101C000030303042303030353030303930303043A1
:101C1000303030353030303930303043303030359E
:101C20003030303930303038303030353030303995
:101C30003030304130303035303030393030304273
:101C4000303041460D0A3A32303042433030303085
:101C5000353030303930303043303030353030305E
:101C60003930303046303030353030303930303047
:101C70004130303035303030393030303030303045
:101C80003530303039303030413030304330303919
:101C9000340D0A3A3230304245303030303730304F
:101CA0003031303030333030304630303046303004
:101CB00030463030304630303046303030383030DA
:101CC00030413030304230303033303030393030E5
:101CD00030413030303130303039303036320D0A2A
:101CE0003A323030433030303030443030303330BE
:101CF00030303730303037303030393030304230BB
:101D00003030433030304330303032303030433098
:101D1000303045303030463030304630303044306E
:101D200030304430303038303032450D0A3A3230BD
:101D30003043323030303034303030443030304462
:101D40003030304430303030303030323030304469
:101D5000303030443030303930303036303030464A
:101D60003030304630303042303030423030304326
:101D700030303043303031320D0A3A323030433473
:101D80003030303038303030343030304430303033
:101D90004430303035303030303030304130303019
:101DA00044303030463030304230303031303030F6
:101DB00042303030423030304130303041303030DD
:101DC00046303046450D0A3A3230304336303030F6
:101DD00030463030303830303034303030333030DE
:101DE00030413030304330303045303030423030A8
:101DF00030353030303130303043303030363030C4
:101E000030323030303030303037303030373030C2
:101E100046460D0A3A3230304338303030303330B5
:101E20003030323030304330303036303030443083
:101E30003030433030304330303037303030413064
:101E4000303035303030363030303330303039307B
:101E50003030343030303030303036303045360D80
:101E60000A3A32303043413030303030303030395F
:101E7000303030433030303530303030303030304A
:101E80003030304130303043303030363030304315
:101E9000303030373030304130303035303030361F
:101EA0003030303330303039303043410D0A3A323F
:101EB00030304343303030303430303030303030F8
:101EC00036303030443030303930303043303030DC
:101ED00031303030303030303030303041303030F0
:101EE00043303030363030304330303037303030BF
:101EF0004130303035303041390D0A3A32303043DC
:101F000045303030303630303033303030393030AA
:101F100030343030303030303036303030393030AE
:101F20003039303030433030304330303030303082
:101F30003030303030413030304330303036303077
:101F40003043303038360D0A3A3230304430303099
:101F50003030373030304130303034303030303065
:101F6000303043303030393030304630303035303A
:101F7000303045303030323030303830303043302F
:101F80003030313030303830303043303030423023
:101F90003035310D0A3A323030443230303030434F
:101FA0003030304130303034303030313030303219
:101FB0003030303430303031303030353030303314
:101FC00030303036303030433030304330303034E1
:101FD00030303031303030323030303630303545DE
:101FE0000D0A3A3230304434303030304630303000
:101FF00043303030453030303030303046303030A3
:1020000030303030363030303630303043303030B1
:102010004530303030303030463030304330303082
:10202000363030304430303043303046420D0A3A9A
:10203000323030443630303030453030303030306F
:10204000304630303043303030353030304430304E
:102050003031303030363030303630303043303060
:102060003045303030303030304630303045303030
:10207000304430303031303045360D0A3A3230306D
:102080004438303030303030303030303030343030
:10209000303041303030353030303630303045300F
:1020A0003030413030304330303036303030303006
:1020B00030303630303044303030413030304530E0
:1020C000303030303045350D0A3A3230304441300E
:1020D00030303046303030333030303230303036DF
:1020E00030303034303030303030304530303030D7
:1020F00030303034303030433030303630303044AF
:1021000030303030303030453030303030303044A6
:10211000303043390D0A3A323030444330303030B9
:102120004330303036303030353030303030303091
:102130004530303030303030353030304330303072
:10214000453030304430303031303030393030305C
:10215000433030303130303030303030443030394E
:10216000450D0A3A3230304445303030304330305B
:102170003031303030323030304130303044303037
:10218000303630303044303030323030304430301F
:102190003043303030413030303430303042303005
:1021A00030343030303730303041303037310D0A54
:1021B0003A323030453030303030343030303130F9
:1021C00030303230303036303030423030304430E1
:1021D00030304530303030303030423030303730D1
:1021E00030303230303036303030303030303430E3
:1021F00030304530303030303037330D0A3A3230FD
:10220000304532303030304230303043303030368C
:102210003030303830303039303030453030303098
:10222000303030423030304330303039303030446C
:10223000303030313030303630303036303030447D
:1022400030303045303032310D0A3A32303045349A
:102250003030303030303030423030304330303059
:102260003030303034303030413030303530303054
:10227000363030304530303041303030433030301F
:102280003630303036303030353030303930303034
:1022900045303031360D0A3A323030453630303044
:1022A0003030303030453030304330303036303000
:1022B00030423030304430303045303030303030E3
:1022C00030423030304430303032303030363030E0
:1022D00030333030303130303045303030303030E5
:1022E00046410D0A3A3230304538303030303330E4
:1022F00030304330303036303030443030303130B0
:102300003030453030303030303044303030433091
:10231000303036303030363030303130303045309B
:102320003030303030303630303043303044420D91
:102330000A3A323030454130303030453030304468
:10234000303030313030303930303043303030316F
:102350003030303330303044303030433030303152
:102360003030303130303041303030443030303641
:102370003030304430303032303042360D0A3A326C
:10238000303045433030303044303030343030300D
:102390003130303032303030313030303130303038
:1023A000353030303430303046303030303030300E
:1023B00043303030393030303630303046303030E5
:1023C0003030303043303041450D0A3A32303045FC
:1023D00045303030303930303035303030423030C8
:1023E00030323030303130303031303030333030E6
:1023F00030323030303130303031303030333030D6
:1024000030463030303130303030303030433030A2
:102410003033303041430D0A3A32303046303030BC
:10242000303033303030303030303930303046308A
:102430003030303030303330303034303030353090
:10244000303041303030433030303730303033305E
:102450003030383030303430303035303030323069
:102460003037370D0A3A3230304632303030304370
:102470003030304330303035303030393030303239
:102480003030303530303039303030463030303523
:102490003030303930303031303030313030303031
:1024A00030303041303030433030303730303346E8
:1024B0000D0A3A323030463430303030433030302C
:1024C00046303030463030304630303046303030B4
:1024D00046303030463030304630303046303030A4
:1024E0004630303046303030463030304630303094
:1024F000463030304630303046303041340D0A3AC4
:102500003230304636303030304630303046303081
:102510003046303030463030304630303046303063
:102520003046303030463030304630303046303053
:102530003046303030463030304630303046303043
:10254000304630303046303038310D0A3A32303093
:10255000463830303030463030304630303046301B
:102560003030463030304630303046303030463013
:102570003030463030304630303046303030463003
:1025800030304630303046303030463030304630F3
:10259000303046303036310D0A3A32303046413034
:1025A00030303046303030463030304630303046D3
:1025B00030303046303030463030304630303046C3
:1025C00030303046303030463030304630303046B3
:1025D00030303046303030463030304630303046A3
:1025E000303034310D0A3A323030464330303030FA
:1025F0004630303046303030463030304630303083
:102600004630303046303030463030304630303072
:102610003130303035303030463030303730303097
:102620003730303041303030453030303730303571
:10263000370D0A3A3230304645303030303930309C
:102640003042303030423030303930303037303056
:102650003046303030433030303830303046303033
:102660003046303030463030304630303046303012
:1026700030463030304630303041303032430D0A51
:102680003A3230313030303030303030303030303D
:10269000303030303030303030303030303030303A
:1026A000303030303030303030303030303030302A
:1026B000303030303030303030303030303030301A
:1026C00030303030303030303044300D0A3A323033
:1026D00031303230303030303030303030303030F7
:1026E00030303030303030303030303030303030EA
:1026F00030303030303030303030303030303030DA
:1027000030303030303030303030303030303030C9
:1027100030303030303042300D0A3A3230313034DF
:1027200030303030303030303030303030303030A9
:102730003030303030303030303030303030303099
:102740003030303030303030303030303030303089
:102750003030303030303030303030303030303079
:1027600030303039300D0A3A323031303630303096
:102770003030303030303030303030303030303059
:102780003030303030303030303030303030303049
:102790003030303030303030303030303030303039
:1027A0003030303030303030303030303030303029
:1027B00037300D0A3A323031303830303030303046
:1027C0003030303030303030303030303030303009
:1027D00030303030303030303030303030303030F9
:1027E00030303030303030303030303030303030E9
:1027F0003030303030303030303030303035300DF7
:102800000A3A3230313041303030303030303030D0
:1028100030303030303030303030303030303030B8
:1028200030303030303030303030303030303030A8
:102830003030303030303030303030303030303098
:102840003030303030303030303033300D0A3A32C2
:102850003031304330303030303030303030303064
:102860003030303030303030303030303030303068
:102870003030303030303030303030303030303058
:102880003030303030303030303030303030303048
:102890003030303030303031300D0A3A3230313073
:1028A0004530303030303030303030303030303013
:1028B0003030303030303030303030303030303018
:1028C0003030303030303030303030303030303008
:1028D00030303030303030303030303030303030F8
:1028E0003030303046300D0A3A323031313030300D
:1028F00030303030303030303030303030303030D8
:1029000030303030303030303030303030303030C7
:1029100030303030303030303030303030303030B7
:1029200030303030303030303030303030303030A7
:102930003043460D0A3A32303131323030303030A7
:102940003030303030303030303030303030303087
:102950003030303030303030303030303030303077
:102960003030303030303030303030303030303067
:102970003030303030303030303030303030414630
:102980000D0A3A323031313430303030303030307E
:102990003030303030303030303030303030303037
:1029A0003030303030303030303030303030303027
:1029B0003030303030303030303030303030303017
:1029C000303030303030303030303038460D0A3A28
:1029D00032303131363030303030303030303030ED
:1029E00030303030303030303030303030303030E7
:1029F00030303030303030303030303030303030D7
:102A000030303030303030303030303030303030C6
:102A1000303030303030303036460D0A3A323031D6
:102A2000313830303030303030303030303030309D
:102A30003030303030303030303030303030303096
:102A40003030303030303030303030303030303086
:102A50003030303030303030303030303030303076
:102A6000303030303034460D0A3A32303131413076
:102A70003030303030303030303030303030303056
:102A80003030303030303030303030303030303046
:102A90003030303030303030303030303030303036
:102AA0003030303030303030303030303030303026
:102AB000303032460D0A3A32303131433030303026
:102AC0003030303030303030303030303030303006
:102AD00030303030303030303030303030303030F6
:102AE00030303030303030303030303030303030E6
:102AF00030303030303030303030303030303030D6
:102B0000460D0A3A323031314530303030303030D5
:102B100030303030303030303030303030303030B5
:102B200030303030303030303030303030303030A5
:102B30003030303030303030303030303030303095
:102B400030303030303030303030303045460D0AA3
:102B50003A32303132303030303030303030303066
:102B60003030303030303030303030303030303065
:102B70003030303030303030303030303030303055
:102B80003030303030303030303030303030303045
:102B900030303030303030303043450D0A3A32304A
:102BA0003132323030303030303030303030303020
:102BB0003030303030303030303030303030303015
:102BC0003030303030303030303030303030303005
:102BD00030303030303030303030303030303030F5
:102BE00030303030303041450D0A3A3230313234F5
:102BF00030303030303030303030303030303030D5
:102C000030303030303030303030303030303030C4
:102C100030303030303030303030303030303030B4
:102C200030303030303030303030303030303030A4
:102C300030303038450D0A3A3230313236303030AB
:102C40003030303030303030303030303030303084
:102C50003030303030303030303030303030303074
:102C60003030303030303030303030303030303064
:102C70003030303030303030303030303030303054
:102C800036450D0A3A32303132383030303030305B
:102C90003030303030303030303030303030303034
:102CA0003030303030303030303030303030303024
:102CB0003030303030303030303030303030303014
:102CC0003030303030303030303030303034450D0E
:102CD0000A3A3230313241303030303030303030FA
:102CE00030303030303030303030303030303030E4
:102CF00030303030303030303030303030303030D4
:102D000030303030303030303030303030303030C3
:102D10003030303030303030303032450D0A3A32D9
:102D2000303132433030303030303030303030308D
:102D30003030303030303030303030303030303093
:102D40003030303030303030303030303030303083
:102D50003030303030303030303030303030303073
:102D60003030303030303030450D0A3A3230313288
:102D7000453030303030303030303030303030303E
:102D80003030303030303030303030303030303043
:102D90003030303030303030303030303030303033
:102DA0003030303030303030303030303030303023
:102DB0003030303045450D0A3A3230313330303022
:102DC0003030303030303030303030303030303003
:102DD00030303030303030303030303030303030F3
:102DE00030303030303030303030303030303030E3
:102DF00030303030303030303030303030303030D3
:102E00003043440D0A3A32303133323030303030D2
:102E100030303030303030303030303030303030B2
:102E200030303030303030303030303030303030A2
:102E30003030303030303030303030303030303092
:102E4000303030303030303030303030303041445D
:102E50000D0A3A32303133343030303030303030A7
:102E60003030303030303030303030303030303062
:102E70003030303030303030303030303030303052
:102E80003030303030303030303030303030303042
:102E9000303030303030303030303038440D0A3A55
:102EA0003230313336303030303030303030303016
:102EB0003030303030303030303030303030303012
:102EC0003030303030303030303030303030303002
:102ED00030303030303030303030303030303030F2
:102EE000303030303030303036440D0A3A32303104
:102EF00033383030303030303030303030303030C7
:102F000030303030303030303030303030303030C1
:102F100030303030303030303030303030303030B1
:102F200030303030303030303030303030303030A1
:102F3000303030303034440D0A3A323031334130A1
:102F40003030303030303030303030303030303081
:102F50003030303030303030303030303030303071
:102F60003030303030303030303030303030303061
:102F70003030303030303030303030303030303051
:102F8000303032440D0A3A32303133433030303051
:102F90003030303030303030303030303030303031
:102FA0003030303030303030303030303030303021
:102FB0003030303030303030303030303030303011
:102FC0003030303030303030303030303030303001
:102FD000440D0A3A32303133453030303030303001
:102FE00030303030303030303030303030303030E1
:102FF00030303030303030303030303030303030D1
:1030000030303030303030303030303030303030C0
:1030100030303030303030303030303045440D0AD0
:103020003A3230313430303030303030303030308F
:103030003030303030303030303030303030303090
:103040003030303030303030303030303030303080
:103050003030303030303030303030303030303070
:1030600030303030303030303043430D0A3A323077
:103070003134323030303030303030303030303049
:103080003030303030303030303030303030303040
:103090003030303030303030303030303030303030
:1030A0003030303030303030303030303030303020
:1030B00030303030303041430D0A3A323031343420
:1030C0003030303030303030303030303030303000
:1030D00030303030303030303030303030303030F0
:1030E00030303030303030303030303030303030E0
:1030F00030303030303030303030303030303030D0
:1031000030303038430D0A3A3230313436303030D6
:1031100030303030303030303030303030303030AF
:10312000303030303030303030303030303030309F
:10313000303030303030303030303030303030308F
:10314000303030303030303030303030303030307F
:1031500036430D0A3A323031343830303030303086
:10316000303030303030303030303030303030305F
:10317000303030303030303030303030303030304F
:10318000303030303030303030303030303030303F
:103190003030303030303030303030303034430D3B
:1031A0000A3A323031344130303030303030303023
:1031B000303030303030303030303030303030300F
:1031C00030303030303030303030303030303030FF
:1031D00030303030303030303030303030303030EF
:1031E0003030303030303030303032430D0A3A3207
:1031F00030313443303030303030303030303030B7
:1032000030303030303030303030303030303030BE
:1032100030303030303030303030303030303030AE
:10322000303030303030303030303030303030309E
:103230003030303030303030430D0A3A32303134B3
:103240004530303030303030303030303030303069
:10325000303030303030303030303030303030306E
:10326000303030303030303030303030303030305E
:10327000303030303030303030303030303030304E
:103280003030303045430D0A3A323031353030304D
:10329000303030303030303030303030303030302E
:1032A000303030303030303030303030303030301E
:1032B000303030303030303030303030303030300E
:1032C00030303030303030303030303030303030FE
:1032D0003043420D0A3A32303135323030303030FE
:1032E00030303030303030303030303030303030DE
:1032F00030303030303030303030303030303030CE
:1033000030303030303030303030303030303030BD
:10331000303030303030303030303030303041428A
:103320000D0A3A32303135343030303030303030D0
:10333000303030303030303030303030303030308D
:10334000303030303030303030303030303030307D
:10335000303030303030303030303030303030306D
:10336000303030303030303030303038420D0A3A82
:10337000323031353630303030303030303030303F
:10338000303030303030303030303030303030303D
:10339000303030303030303030303030303030302D
:1033A000303030303030303030303030303030301D
:1033B000303030303030303036420D0A3A32303131
:1033C00035383030303030303030303030303030F0
:1033D00030303030303030303030303030303030ED
:1033E00030303030303030303030303030303030DD
:1033F00030303030303030303030303030303030CD
:10340000303030303034420D0A3A323031354130CC
:1034100030303030303030303030303030303030AC
:10342000303030303030303030303030303030309C
:10343000303030303030303030303030303030308C
:10344000303030303030303030303030303030307C
:10345000303032420D0A3A3230313543303030307C
:10346000303030303030303030303030303030305C
:10347000303030303030303030303030303030304C
:10348000303030303030303030303030303030303C
:10349000303030303030303030303030303030302C
:1034A000420D0A3A3230313545303030303030302C
:1034B000303030303030303030303030303030300C
:1034C00030303030303030303030303030303030FC
:1034D00030303030303030303030303030303030EC
:1034E00030303030303030303030303045420D0AFE
:1034F0003A323031363030303030303030303030B9
:1035000030303030303030303030303030303030BB
:1035100030303030303030303030303030303030AB
:10352000303030303030303030303030303030309B
:1035300030303030303030303043410D0A3A3230A4
:103540003136323030303030303030303030303072
:10355000303030303030303030303030303030306B
:10356000303030303030303030303030303030305B
:10357000303030303030303030303030303030304B
:1035800030303030303041410D0A3A32303136344B
:10359000303030303030303030303030303030302B
:1035A000303030303030303030303030303030301B
:1035B000303030303030303030303030303030300B
:1035C00030303030303030303030303030303030FB
:1035D00030303038410D0A3A323031363630303002
:1035E00030303030303030303030303030303030DB
:1035F00030303030303030303030303030303030CB
:1036000030303030303030303030303030303030BA
:1036100030303030303030303030303030303030AA
:1036200036410D0A3A3230313638303030303030B1
:10363000303030303030303030303030303030308A
:10364000303030303030303030303030303030307A
:10365000303030303030303030303030303030306A
:103660003030303030303030303030303034410D68
:103670000A3A32303136413030303030303030304C
:10368000303030303030303030303030303030303A
:10369000303030303030303030303030303030302A
:1036A000303030303030303030303030303030301A
:1036B0003030303030303030303032410D0A3A3234
:1036C00030313643303030303030303030303030E0
:1036D00030303030303030303030303030303030EA
:1036E00030303030303030303030303030303030DA
:1036F00030303030303030303030303030303030CA
:103700003030303030303030410D0A3A32303136DE
:103710004530303030303030303030303030303094
:103720003030303030303030303030303030303099
:103730003030303030303030303030303030303089
:103740003030303030303030303030303030303079
:103750003030303045410D0A3A3230313730303078
:103760003030303030303030303030303030303059
:103770003030303030303030303030303030303049
:103780003030303030303030303030303030303039
:103790003030303030303030303030303030303029
:1037A0003043390D0A3A3230313732303030303030
:1037B0003030303030303030303030303030303009
:1037C00030303030303030303030303030303030F9
:1037D00030303030303030303030303030303030E9
:1037E00030303030303030303030303030304139BF
:1037F0000D0A3A32303137343030303030303030FA
:1038000030303030303030303030303030303030B8
:1038100030303030303030303030303030303030A8
:103820003030303030303030303030303030303098
:10383000303030303030303030303038390D0A3AB6
:103840003230313736303030303030303030303068
:103850003030303030303030303030303030303068
:103860003030303030303030303030303030303058
:103870003030303030303030303030303030303048
:10388000303030303030303036390D0A3A32303165
:103890003738303030303030303030303030303019
:1038A0003030303030303030303030303030303018
:1038B0003030303030303030303030303030303008
:1038C00030303030303030303030303030303030F8
:1038D000303030303034390D0A3A323031374130FF
:1038E00030303030303030303030303030303030D8
:1038F00030303030303030303030303030303030C8
:1039000030303030303030303030303030303030B7
:1039100030303030303030303030303030303030A7
:10392000303032390D0A3A323031374330303030AE
:103930003030303030303030303030303030303087
:103940003030303030303030303030303030303077
:103950003030303030303030303030303030303067
:103960003030303030303030303030303030303057
:10397000390D0A3A3230313745303030303030305E
:103980003030303030303030303030303030303037
:103990003030303030303030303030303030303027
:1039A0003030303030303030303030303030303017
:1039B00030303030303030303030303045390D0A32
:1039C0003A323031383030303030303030303030E2
:1039D00030303030303030303030303030303030E7
:1039E00030303030303030303030303030303030D7
:1039F00030303030303030303030303030303030C7
:103A000030303030303030303043380D0A3A3230D8
:103A1000313832303030303030303030303030309B
:103A20003030303030303030303030303030303096
:103A30003030303030303030303030303030303086
:103A40003030303030303030303030303030303076
:103A500030303030303041380D0A3A32303138347D
:103A60003030303030303030303030303030303056
:103A70003030303030303030303030303030303046
:103A80003030303030303030303030303030303036
:103A90003030303030303030303030303030303026
:103AA00030303038380D0A3A323031383630303034
:103AB0003030303030303030303030303030303006
:103AC00030303030303030303030303030303030F6
:103AD00030303030303030303030303030303030E6
:103AE00030303030303030303030303030303030D6
:103AF00036380D0A3A3230313838303030303030E4
:103B000030303030303030303030303030303030B5
:103B100030303030303030303030303030303030A5
:103B20003030303030303030303030303030303095
:103B30003030303030303030303030303034380D9C
:103B40000A3A323031384130303030303030303075
:103B50003030303030303030303030303030303065
:103B60003030303030303030303030303030303055
:103B70003030303030303030303030303030303045
:103B80003030303030303030303032380D0A3A3268
:103B90003031384330303030303030303030303009
:103BA0003030303030303030303030303030303015
:103BB0003030303030303030303030303030303005
:103BC00030303030303030303030303030303030F5
:103BD0003030303030303030380D0A3A3230313811
:103BE00045303030303030303030303030303030C0
:103BF00030303030303030303030303030303030C5
:103C000030303030303030303030303030303030B4
:103C100030303030303030303030303030303030A4
:103C20003030303045380D0A3A32303139303030AA
:103C30003030303030303030303030303030303084
:103C40003030303030303030303030303030303074
:103C50003030303030303030303030303030303064
:103C60003030303030303030303030303030303054
:103C70003043370D0A3A323031393230303030305B
:103C80003030303030303030303030303030303034
:103C90003030303030303030303030303030303024
:103CA0003030303030303030303030303030303014
:103CB00030303030303030303030303030304137EC
:103CC0000D0A3A3230313934303030303030303023
:103CD00030303030303030303030303030303030E4
:103CE00030303030303030303030303030303030D4
:103CF00030303030303030303030303030303030C4
:103D0000303030303030303030303038370D0A3AE3
:103D10003230313936303030303030303030303091
:103D20003030303030303030303030303030303093
:103D30003030303030303030303030303030303083
:103D40003030303030303030303030303030303073
:103D5000303030303030303036370D0A3A32303192
:103D60003938303030303030303030303030303042
:103D70003030303030303030303030303030303043
:103D80003030303030303030303030303030303033
:103D90003030303030303030303030303030303023
:103DA000303030303034370D0A3A3230313941302A
:103DB0003030303030303030303030303030303003
:103DC00030303030303030303030303030303030F3
:103DD00030303030303030303030303030303030E3
:103DE00030303030303030303030303030303030D3
:103DF000303032370D0A3A323031394330303030DA
:103E000030303030303030303030303030303030B2
:103E100030303030303030303030303030303030A2
:103E20003030303030303030303030303030303092
:103E30003030303030303030303030303030303082
:103E4000370D0A3A32303139453030303030303089
:103E50003030303030303030303030303030303062
:103E60003030303030303030303030303030303052
:103E70003030303030303030303030303030303042
:103E800030303030303030303030303045370D0A5F
:103E90003A32303141303030303030303030303004
:103EA0003030303030303030303030303030303012
:103EB0003030303030303030303030303030303002
:103EC00030303030303030303030303030303030F2
:103ED00030303030303030303043360D0A3A323006
:103EE00031413230303030303030303030303030BE
:103EF00030303030303030303030303030303030C2
:103F000030303030303030303030303030303030B1
:103F100030303030303030303030303030303030A1
:103F200030303030303041360D0A3A3230314134A1
:103F30003030303030303030303030303030303081
:103F40003030303030303030303030303030303071
:103F50003030303030303030303030303030303061
:103F60003030303030303030303030303030303051
:103F700030303038360D0A3A323031413630303058
:103F80003030303030303030303030303030303031
:103F90003030303030303030303030303030303021
:103FA0003030303030303030303030303030303011
:103FB0003030303030303030303030303030303001
:103FC00036360D0A3A323031413830303030303008
:103FD00030303030303030303030303030303030E1
:103FE00030303030303030303030303030303030D1
:103FF00030303030303030303030303030303030C1
:104000003030303030303030303030303034360DC9
:104010000A3A323031414130303030303030303097
:104020003030303030303030303030303030303090
:104030003030303030303030303030303030303080
:104040003030303030303030303030303030303070
:104050003030303030303030303032360D0A3A3295
:10406000303141433030303030303030303030302B
:104070003030303030303030303030303030303040
:104080003030303030303030303030303030303030
:104090003030303030303030303030303030303020
:1040A0003030303030303030360D0A3A3230314135
:1040B00045303030303030303030303030303030EB
:1040C00030303030303030303030303030303030F0
:1040D00030303030303030303030303030303030E0
:1040E00030303030303030303030303030303030D0
:1040F0003030303045360D0A3A32303142303030CF
:1041000030303030303030303030303030303030AF
:10411000303030303030303030303030303030309F
:10412000303030303030303030303030303030308F
:10413000303030303030303030303030303030307F
:104140003043350D0A3A323031423230303030307F
:10415000303030303030303030303030303030305F
:10416000303030303030303030303030303030304F
:10417000303030303030303030303030303030303F
:104180003030303030303030303030303030413519
:104190000D0A3A3230314234303030303030303045
:1041A000303030303030303030303030303030300F
:1041B00030303030303030303030303030303030FF
:1041C00030303030303030303030303030303030EF
:1041D000303030303030303030303038350D0A3A11
:1041E00032303142363030303030303030303030B4
:1041F00030303030303030303030303030303030BF
:1042000030303030303030303030303030303030AE
:10421000303030303030303030303030303030309E
:10422000303030303030303036350D0A3A323031BF
:104230004238303030303030303030303030303064
:10424000303030303030303030303030303030306E
:10425000303030303030303030303030303030305E
:10426000303030303030303030303030303030304E
:10427000303030303034350D0A3A3230314241304E
:10428000303030303030303030303030303030302E
:10429000303030303030303030303030303030301E
:1042A000303030303030303030303030303030300E
:1042B00030303030303030303030303030303030FE
:1042C000303032350D0A3A323031424330303030FE
:1042D00030303030303030303030303030303030DE
:1042E00030303030303030303030303030303030CE
:1042F00030303030303030303030303030303030BE
:1043000030303030303030303030303030303030AD
:10431000350D0A3A323031424530303030303030AD
:10432000303030303030303030303030303030308D
:10433000303030303030303030303030303030307D
:10434000303030303030303030303030303030306D
:1043500030303030303030303030303045350D0A8C
:104360003A3230314330303030303030303030302D
:10437000303030303030303030303030303030303D
:10438000303030303030303030303030303030302D
:10439000303030303030303030303030303030301D
:1043A00030303030303030303043340D0A3A323033
:1043B00031433230303030303030303030303030E7
:1043C00030303030303030303030303030303030ED
:1043D00030303030303030303030303030303030DD
:1043E00030303030303030303030303030303030CD
:1043F00030303030303041340D0A3A3230314334CD
:1044000030303030303030303030303030303030AC
:10441000303030303030303030303030303030309C
:10442000303030303030303030303030303030308C
:10443000303030303030303030303030303030307C
:1044400030303038340D0A3A323031433630303083
:10445000303030303030303030303030303030305C
:10446000303030303030303030303030303030304C
:10447000303030303030303030303030303030303C
:10448000303030303030303030303030303030302C
:1044900036340D0A3A323031433830303030303033
:1044A000303030303030303030303030303030300C
:1044B00030303030303030303030303030303030FC
:1044C00030303030303030303030303030303030EC
:1044D0003030303030303030303030303034340DF7
:1044E0000A3A3230314341303030303030303030C1
:1044F00030303030303030303030303030303030BC
:1045000030303030303030303030303030303030AB
:10451000303030303030303030303030303030309B
:104520003030303030303030303032340D0A3A32C2
:104530003031434330303030303030303030303054
:10454000303030303030303030303030303030306B
:10455000303030303030303030303030303030305B
:10456000303030303030303030303030303030304B
:104570003030303030303030340D0A3A3230314360
:104580004530303030303030303030303030303016
:10459000303030303030303030303030303030301B
:1045A000303030303030303030303030303030300B
:1045B00030303030303030303030303030303030FB
:1045C0003030303045340D0A3A32303144303030FA
:1045D00030303030303030303030303030303030DB
:1045E00030303030303030303030303030303030CB
:1045F00030303030303030303030303030303030BB
:1046000030303030303030303030303030303030AA
:104610003043330D0A3A32303144323030303030AA
:10462000303030303030303030303030303030308A
:10463000303030303030303030303030303030307A
:10464000303030303030303030303030303030306A
:104650003030303030303030303030303030413346
:104660000D0A3A323031443430303030303030306E
:10467000303030303030303030303030303030303A
:10468000303030303030303030303030303030302A
:10469000303030303030303030303030303030301A
:1046A000303030303030303030303038330D0A3A3E
:1046B00032303144363030303030303030303030DD
:1046C00030303030303030303030303030303030EA
:1046D00030303030303030303030303030303030DA
:1046E00030303030303030303030303030303030CA
:1046F000303030303030303036330D0A3A323031ED
:10470000443830303030303030303030303030308D
:104710003030303030303030303030303030303099
:104720003030303030303030303030303030303089
:104730003030303030303030303030303030303079
:10474000303030303034330D0A3A32303144413079
:104750003030303030303030303030303030303059
:104760003030303030303030303030303030303049
:104770003030303030303030303030303030303039
:104780003030303030303030303030303030303029
:10479000303032330D0A3A32303144433030303029
:1047A0003030303030303030303030303030303009
:1047B00030303030303030303030303030303030F9
:1047C00030303030303030303030303030303030E9
:1047D00030303030303030303030303030303030D9
:1047E000330D0A3A323031444530303030303030D9
:1047F00030303030303030303030303030303030B9
:1048000030303030303030303030303030303030A8
:104810003030303030303030303030303030303098
:1048200030303030303030303030303045330D0AB9
:104830003A32303145303030303030303030303056
:104840003030303030303030303030303030303068
:104850003030303030303030303030303030303058
:104860003030303030303030303030303030303048
:1048700030303030303030303043320D0A3A323060
:104880003145323030303030303030303030303010
:104890003030303030303030303030303030303018
:1048A0003030303030303030303030303030303008
:1048B00030303030303030303030303030303030F8
:1048C00030303030303041320D0A3A3230314534F8
:1048D00030303030303030303030303030303030D8
:1048E00030303030303030303030303030303030C8
:1048F00030303030303030303030303030303030B8
:1049000030303030303030303030303030303030A7
:1049100030303038320D0A3A3230314536303030AE
:104920003030303030303030303030303030303087
:104930003030303030303030303030303030303077
:104940003030303030303030303030303030303067
:104950003030303030303030303030303030303057
:1049600036320D0A3A32303145383030303030305E
:104970003030303030303030303030303030303037
:104980003030303030303030303030303030303027
:104990003030303030303030303030303030303017
:1049A0003030303030303030303030303034320D24
:1049B0000A3A3230314541303030303030303030EA
:1049C00030303030303030303030303030303030E7
:1049D00030303030303030303030303030303030D7
:1049E00030303030303030303030303030303030C7
:1049F0003030303030303030303032320D0A3A32F0
:104A0000303145433030303030303030303030307D
:104A10003030303030303030303030303030303096
:104A20003030303030303030303030303030303086
:104A30003030303030303030303030303030303076
:104A40003030303030303030320D0A3A323031458B
:104A50004530303030303030303030303030303041
:104A60003030303030303030303030303030303046
:104A70003030303030303030303030303030303036
:104A80003030303030303030303030303030303026
:104A90003030303045320D0A3A3230314630303025
:104AA0003030303030303030303030303030303006
:104AB00030303030303030303030303030303030F6
:104AC00030303030303030303030303030303030E6
:104AD00030303030303030303030303030303030D6
:104AE0003043310D0A3A32303146323030303030D6
:104AF00030303030303030303030303030303030B6
:104B000030303030303030303030303030303030A5
:104B10003030303030303030303030303030303095
:104B20003030303030303030303030303030413173
:104B30000D0A3A3230314634303030303030303097
:104B40003030303030303030303030303030303065
:104B50003030303030303030303030303030303055
:104B60003030303030303030303030303030303045
:104B7000303030303030303030303038310D0A3A6B
:104B80003230314636303030303030303030303006
:104B90003030303030303030303030303030303015
:104BA0003030303030303030303030303030303005
:104BB00030303030303030303030303030303030F5
:104BC000303030303030303036310D0A3A3230311A
:104BD00046383030303030303030303030303030B7
:104BE00030303030303030303030303030303030C5
:104BF00030303030303030303030303030303030B5
:104C000030303030303030303030303030303030A4
:104C1000303030303034310D0A3A323031464130A4
:104C20003030303030303030303030303030303084
:104C30003030303030303030303030303030303074
:104C40003030303030303030303030303030303064
:104C50003030303030303030303030303030303054
:104C6000303032310D0A3A32303146433030303054
:104C70003030303030303030303030303030303034
:104C80003030303030303030303030303030303024
:104C90003030303030303030303030303030303014
:104CA0003030303030303030303030303030303004
:104CB000310D0A3A32303146453030303030303004
:104CC00030303030303030303030303030303030E4
:104CD00030303030303030303030303030303030D4
:104CE00030303030303030303030303030303030C4
:104CF00030303030303030303030303045310D0AE7
:104D00003A3230323030303030303430303044307D
:104D10003030333030303330303032303030443077
:104D20003030343030303430303035303030363070
:104D30003030333030303930303032303030443051
:104D400030303330303031303036380D0A3A30348C
:104D500032303230303042413033374630463731EE
:0F4D60000D0A3A303030303030303146460D0ACF
:00000001FF
