:080000001F0C4300FF0C05007A
:08000800FF0C0600FF0C0700CD
:08001000FF0C0800FF0C0900C1
:0800180010003A0BFF0C2A0056
:08002000FF0C3400FF0C33005B
:0800280065071000680B2506B6
:08003000850BF302140AF4022F
:08003800120AEA02100A0C0092
:08004000FF0C2A00FF0C340044
:08004800FF0C330065071000F6
:08005000680BF302260AF4021A
:08005800240AEA02220A0C004E
:080060000A0C3300F302320A1E
:080068000C000F0C3300F30241
:08007000370A0C0045053B0CAA
:080078002A00D40C34006502DB
:08008000030C3300F302420AF5
:08008800F402400AEA023D0AFD
:080090000C0045043B0C2A00A2
:08009800D40C34006507990B3C
:0800A000030C3300F302520AC5
:0800A800F402500AEA024C0ABE
:0800B0000C00E20153084308B3
:0800B800450841085308430804
:0800C0004508490853084308F4
:0800C80045084508410C9500B4
:0800D00043066F0A450C950080
:0800D8004306710A740A70006E
:0800E000760A080C3000760AD4
:0800E800040C30001F0C430062
:0800F0000B0C0500040C2C00B0
:0800F800100259092D006D02F0
:08010000080C2E004909490911
:080108003A092D0303068B0ADE
:08011000030749098C0A3A09B2
:08011800EE02850AB002EC02C0
:080120007C0A4504160C2B00BB
:080128004909EB02940A1F0CC7
:0801300043000F0C05000C0058
:0801380005069C0A0C00650796
:08014000680B05069F0A000090
:08014800600C870043079F0AC9
:080150009C09000C8700430725
:080158009F0A9C09040C8700BA
:0801600043079F0A9C09080CEB
:08016800870043079F0A05060A
:08017000B70A0000060C87002D
:080178004307B70A320C9600A0
:080180004306EE0A350C96005F
:080188004306DA0A0506C60A67
:080190000000E00C87004307AA
:08019800C60A9C09030C870054
:0801A0004307B70A30096700AC
:0801A8001F0C4300000C0700CE
:0801B0001100470A0506DA0AF6
:0801B8000000E00C8700430782
:0801C000DA0A9C09030C870018
:0801C8004307B70A3009670084
:0801D0001F0C4300000C0700A6
:0801D8001100D90A0506EE0A28
:0801E0000000E00C870043075A
:0801E800EE0A9C09030C8700DC
:0801F0004307B70A300967005C
:0801F8001F0C4300000C07007E
:080200001200060B6507680BF4
:080208000506020B0000AF0C1B
:0802100087004307020B9C0963
:080218001E0C87004307020BD6
:080220009C09080C870043074C
:08022800020B350967001F0CF1
:080230004300000C070012005E
:0802380003096507680B0506C8
:080240001D0B0000AF0C87004C
:0802480043071D0B9C091E0C6D
:08025000870043071D0B9C0908
:08025800080C870043071D0B91
:08026000350967001F0C430083
:08026800000C0700120003095D
:0802700013004B0B05063A0BCD
:08027800320C870043073A0B2A
:080280009C09300C87004307C4
:080288003A0B9C09310C8700C0
:0802900043073A0B9C09070229
:08029800360005064D0B0000C5
:0802A000300C870043074D0BF1
:0802A8009C0907023500050660
:0802B000570B0000300C870021
:0802B8004307570B9C09300CB1
:0802C00087004307570B9C095E
:0802C800070237006507990BDE
:0802D0009F0A1100080925072F
:0802D800710B6507680B250698
:0802E0006D0B200925066D0BD2
:0802E80086067D0B1300FE09E0
:0802F000320C97004306020BDB
:0802F8001D0B0E091300AF09F4
:08030000320C97004306020BCA
:080308001D0B6507680B2507BA
:08031000850B6507680B25064B
:08031800890B0E098606940B07
:080320001300FE0913004B0B52
:080328000E091300AF091300D8
:080330004B0B230C3200410CC1
:0803380095004306D80B1F0CD1
:0803400043000F0C0500250627
:08034800990B66096507990B8A
:080350008606A60BF202A50BC4
:080358006507990B8606D80B1E
:08036000350C87004307AC0BCC
:080368009C092E0C87004307DD
:08037000AC0B9C09300C870066
:080378004307AC0B9C09200CAB
:0803800087004307AC0B0506E2
:08038800C30B0000200C8700EC
:080390004307C30B410C2700D9
:080398001F0C4300000C0700DC
:0803A000060C3300F302D20B3E
:0803A8001F0C4300FF0C0700CD
:0803B00066096507990B86063A
:0403B800D90BD80B7A
:0803F0005508200847084F08DA
:0803F800540820084D084508D7
:080400000B0C3300F302020AA9
:080408000C000506050A0C00BA
:0804100065071000680BA20C47
:0804180087004307080A0509EB
:08042000930C87004307080A52
:08042800050907023800860CEB
:0804300098004306230AB50CF5
:0804380098004306230AA90CF9
:0804400098004307080A0506B5
:08044800230A0000270C8700C5
:080450004307230A080C2700F2
:080458001F0C4300000C07001B
:080460000506300A080C270014
:080468000507340A000C27000F
:080470000509E00C2700050955
:08047800030C270005096700D1
:08048000000900001F0C4300FD
:08048800FF0C07000D00050741
:08049000470A200C27000509B2
:08049800000C27000509030C0C
:0804A000270005093C0C2700B0
:0804A8000509E40C2700050919
:0804B000240C27000509620C71
:0804B80027000509340C2700A0
:0804C0000509000C27000509E5
:0804C800000C27000509400C9F
:0804D00027000509AC0C270010
:0804D8000509000C27000509CD
:0804E000100C27000509100CA7
:0804E800270005093C0C270068
:0804F0000509050C27000509B0
:0804F800000C27000509110C9E
:0805000027000509360C270055
:080508000509F40C27000509A8
:08051000220C27000509620C12
:0805180027000509340C27003F
:080520000509000C2700050984
:08052800000C27000509510C2D
:0805300027000509AC0C2700AF
:080538000509140C2700050958
:08054000000C27000509110C55
:0805480027000509360C27000D
:0805500005090C0C2700050948
:08055800230C27000509620CC9
:0805600027000509340C2700F7
:080568000509000C270005093C
:08057000000C27000509510CE5
:0805780027000509AC0C270067
:080580000509070C270005091D
:08058800000C27000509030C1B
:0805900027000509240C2700D7
:0805980005090C0C2700050900
:0805A000000C270005091F0CE7
:0805A8004300FF0C07001000E6
:0805B000690B0507D90A200CB4
:0805B80027000509000C2700D3
:0805C0000509030C27000509E1
:0805C8003C0C27000509000CA2
:0805D00027000509100C2700AB
:0805D8000509100C27000509BC
:0805E0003C0C27000509040C86
:0805E80027000509000C2700A3
:0805F0000509100C27000509A4
:0805F800360C27000509080C70
:08060000270005090C0C27007E
:080608000509110C270005098A
:080610003C0C27000509A40CB5
:0806180027000509210C270051
:080620000509620C2700050921
:08062800340C27000509040C45
:0806300027000509090C270051
:080638000509320C2700050939
:08064000360C27000509000C2F
:0806480027000509000C270042
:080650000509520C2700050901
:08065800AC0C27000509440C5D
:0806600027000509250C270005
:080668000509620C27000509D9
:08067000340C27000509000C01
:0806780027000509000C270012
:080680000509500C27000509D3
:08068800AC0C27000509D80C99
:0806900027000509240C2700D6
:080698000509620C27000509A9
:0806A000340C27000509000CD1
:0806A80027000509000C2700E2
:0806B0000509500C27000509A3
:0806B800AC0C27000509880CB9
:0806C00027000509220C2700A8
:0806C8000509620C2700050979
:0806D000340C27000509DE0CC3
:0806D80027000509080C2700AA
:0806E0000509320C2700050991
:0806E800360C27000509000C87
:0806F00027000509000C27009A
:0806F8000509520C2700050959
:08070000AC0C27000509D80C20
:0807080027000509230C27005E
:080710000509620C2700050930
:08071800340C27000509000C58
:0807200027000509000C270069
:080728000509500C270005092A
:08073000AC0C270005090C0CBC
:0807380027000509230C27002E
:080740000509620C2700050900
:08074800340C27000509000C28
:0807500027000509000C270039
:080758000509400C270005090A
:08076000AC0C27000509070C91
:0807680027000509000C270021
:080770000509030C270005092F
:08077800240C270005090C0CFC
:08078000270005091F0C4300CE
:08078800FF0C07001000690BD3
:0807E0004D08490843082D08EB
:0807E8004B08570853082D08C7
:0807F00032083008300832081D
:0807F8002D08520826084408F0
:080800000506000A0C000507C3
:08080800030A200C270000097F
:08081000380C27000009110C4F
:0808180027000009000C270075
:080820000009000C270000098B
:08082800600C27000009030C1D
:0808300027000009240C270039
:080838000009000C2700000973
:08084000000C27000009E20C86
:0808480027000009900C2700B5
:080850000009000C270000095B
:08085800000C27000009E40C6C
:0808600027000009900C27009D
:080868000009FF0C2700000944
:08087000FF0C27000009630CD6
:0808780027000009240C2700F1
:080880000009260C2700000905
:08088800200C27000009820C7E
:0808900027000009000C2700FD
:080898000009000C2700000913
:0808A000000C27000009E40C24
:0808A80027000009A00C270045
:0808B0000009FB0C2700000900
:0808B800FF0C27000009610C90
:0808C00027000009040C2700C9
:0808C8000009010C27000009E2
:0808D000000C27000009E70CF1
:0808D80027000009240C270091
:0808E0000009D00C27000009FB
:0808E800800C27000009800CC0
:0808F00027000009AF0C2700EE
:0808F80000092E0C2700000985
:08090000010C27000009220C84
:0809080027000009920C2700F2
:0809100000092F0C270000096B
:08091800010C27000009230C6B
:0809200027000009920C2700DA
:080928000009260C270000095C
:08093000100C27000009430C24
:0809380027000009000C270054
:0809400000091A0C2700000950
:08094800000C27000009030C5C
:0809500027000009240C270018
:080958000009030C270000094F
:08096000000C27000009430C04
:0809680027000009140C270010
:080970000009010C2700000939
:08097800000C27000009070C28
:0809800027000009240C2700E8
:080988000009BD0C2700000965
:08099000050C27000009040C0E
:0809980027000009080C2700EC
:0809A0000009CC0C270000093E
:0809A800800C27000009870CF8
:0809B00027000009AF0C27002D
:0809B8000009000C27000009F2
:0809C000000C27000009070CE0
:0809C80027000009240C2700A0
:0809D0000009BD0C270000091D
:0809D800050C27000009040CC6
:0809E00027000009080C2700A4
:0809E8000009CC0C27000009F6
:0809F000800C27000009870CB0
:0809F80027000009AF0C2700E5
:080A000000091F0C4300FF0C6C
:080A080007000D000507060BB5
:080A1000200C27000009000C76
:080A180027000009030C270070
:080A200000093C0C270000094D
:080A2800000C27000009100C6E
:080A300027000009100C27004B
:080A380000093C0C2700000935
:080A4000040C27000009000C62
:080A480027000009100C270033
:080A50000009360C2700000923
:080A5800080C270000090C0C3A
:080A600027000009110C27001A
:080A680000093C0C2700000905
:080A7000840C27000009220C90
:080A780027000009620C2700B1
:080A80000009340C27000009F5
:080A8800380C27000009090CDD
:080A900027000009320C2700C9
:080A98000009360C27000009DB
:080AA000000C27000009000C06
:080AA80027000009520C270091
:080AB0000009AC0C270000094D
:080AB800980C27000009250C31
:080AC00027000009620C270069
:080AC8000009340C27000009AD
:080AD000000C27000009000CD6
:080AD80027000009500C270063
:080AE0000009AC0C270000091D
:080AE800040C27000009260C94
:080AF00027000009620C270039
:080AF8000009340C270000097D
:080B0000000C27000009000CA5
:080B080027000009500C270032
:080B10000009AC0C27000009EC
:080B1800500C27000009230C1A
:080B200027000009620C270008
:080B28000009340C270000094C
:080B3000120C27000009090C5A
:080B380027000009320C270020
:080B40000009360C2700000932
:080B4800000C27000009000C5D
:080B500027000009520C2700E8
:080B58000009AC0C27000009A4
:080B6000A80C27000009240C79
:080B680027000009620C2700C0
:080B70000009340C2700000904
:080B7800000C27000009000C2D
:080B800027000009500C2700BA
:080B88000009AC0C2700000974
:080B9000D80C27000009230C1A
:080B980027000009620C270090
:080BA0000009340C27000009D4
:080BA800000C27000009000CFD
:080BB00027000009400C27009A
:080BB8000009AC0C2700000944
:080BC000070C27000009000CDE
:080BC80027000009030C2700BF
:080BD0000009240C27000009B4
:080BD8000C0C270000091F0CA2
:080BE0004300FF0C07001000A8
:020BE800690B97
:080BF0005508200847084F08D2
:080BF800540820084D084508CF
:080C0000E2018308C308A50806
:080C0800010803082608260874
:080C1000A008260806082508CB
:080C18002508630863080008C9
:080C20008408E20141084108CB
:080C2800E608C60805082708CC
:080C30002308A408610807086D
:080C38002108210840084008D2
:080C400000088408E201270806
:080C4800A708A2080208270812
:080C5000250821088108210894
:080C5800030864086408430866
:080C60004308000884080C0C95
:080C68003300F302350A0C0011
:080C70000506380A0C00020C15
:080C78003400F4023D0A0C00F7
:080C80006606400A0000660749
:080C8800430AEF02400A0C00D0
:080C90006606480A3B090C004E
:080C980070001F0C4300180C52
:080CA000060010020009260005
:080CA80000006606540AB002C8
:080CB000F102510A00000000EE
:080CB800FF0C06000C007000A7
:080CC0001F0C4300180C060094
:080CC8001002220926000000C1
:080CD0006606670AB002F1029A
:080CD800640A00000000FF0C9B
:080CE00006000C007000180C66
:080CE8000600100211092600AC
:080CF00000006606780AB0025C
:080CF800F102750A0000000082
:080D0000FF0C06000C00660662
:080D0800830AE20C8600430798
:080D1000830A3B0966068A0A0A
:080D1800E20C860043078A0A81
:080D20003B096606910AE20C92
:080D280086004307910A3B0914
:080D30000C006606990AF20CA2
:080D380086004307990A3B09FC
:080D40006606A00AF20C860011
:080D48004307A00A3B096606FF
:080D5000A70AF20C860043071C
:080D5800A70A3B090C00650726
:080D60001000680B6606AF0AE3
:080D6800100C86004307AF0ADE
:080D70006607B80A6606BA0A1C
:080D7800F70C86004307AF0AE7
:080D80003B096606C10A140CD0
:080D880086004307AF0A3B0996
:080D9000050C2F004009660666
:080D9800CB0A100C8600430792
:080DA000AF0A3B09A60C260076
:080DA8001F0C4300180C0600AB
:080DB00048091F0C4300FF0C71
:080DB80006006606DD0A360C98
:080DC00086004307AF0A3B095E
:080DC8006606E40A320C860005
:080DD0004307AF0A0F0C3100CC
:080DD8009909020C2F004009EB
:080DE000410C95004306FA0ADC
:080DE800450C95004306FC0ACE
:080DF0004C090D005F090D0024
:080DF80072090D0065071000EF
:080E0000680B6606FE0A000CF7
:080E080086004307FE0A00000A
:080E10006606080B440C860085
:080E18004307FE0A3B096606D0
:080E20000F0B000C86004307D4
:080E2800FE0A3B09090C2F0032
:080E300040096606190B000CD5
:080E380086004307FE0A020CCC
:080E40002F0040090000840CA2
:080E480026001F0C4300180CEA
:080E5000060048091F0C4300D5
:080E5800FF0C06000000660615
:080E60002F0B240C8600430750
:080E6800FE0A0F0C31008309A2
:080E7000020C2F0040091F0CC9
:080E78004300410C9500430604
:080E8000470B450C95004306E9
:080E8800490B4C090D005F0944
:080E90000D0072090D00650759
:080E98001000680B2506100094
:080EA000850BA20C870043073B
:080EA8004B0B3809930C870085
:080EB00043074B0B3809070250
:080EB8003800860C9800430687
:080EC000690BB50C9800430614
:080EC800690BA90C9800430717
:080ED0004B0B0506690B000045
:080ED800270C87004307690B9A
:080EE000080C27001F0C430061
:080EE800000C07000506760B63
:080EF000080C270005077A0B2E
:080EF800000C27003809E00C92
:080F000027003809030C27004B
:080F080038091F0C4300FF0C27
:040F100007004B0B80
:080FD0004D08490843082D08F3
:080FD8004B08570853082D08CF
:080FE000320830083008320825
:080FE8002D08520826084408F8
:021FFE00000AD7
:08200000FF0FFF0FFF0FFF0FA0
:08200800FF0FFF0FFF0FFF0F98
:08201000FF0FFF0FFF0FFF0F90
:08201800FF0FFF0FFF0FFF0F88
:10202000FA0FFF0FFFFF04ABFA0280F0FFFF000082
:00000001FF
