:100000005F000F0C0500FF0C0600FF0C070010003E
:100010004A0BFF0C2A00FF0C2900FF0C2800650783
:10002000780BE8020F0AE9020D0AEA020B0A0C003B
:10003000FF0C2A00FF0C2900FF0C280065071000A8
:10004000780B2506980BE8021E0AE9021C0AEA0250
:100050001A0A0C000A0C2800E8022C0A0C000F0CEB
:100060002800E802310A0C0045053B0C2A00D40C9C
:1000700029006502030C2800E8023C0AE9023A0A5A
:10008000EA02370A0C0045043B0C2A00D40C290074
:100090006507B80B030C2800E8024C0AE9024A0A7B
:1000A000EA02460A0C00E2015308430845084108E9
:1000B00053084308450849085308430845084508BC
:1000C000410C95004306690A450C950043066B0AEE
:1000D0006E0A7000700A080C3000700A040C3000C0
:1000E0005F000B0C0500040C2C00100253092D00BE
:1000F0006D02080C2E004309430934092D03030641
:10010000840A03074309850A3409EE027E0AB00215
:10011000EC02750A4504160C2B004309EB028D0A0C
:100120005F000F0C05000C000506940A0C00650723
:10013000780B0506970A0000600C87004307970AB2
:100140009409000C87004307970A9409040C870060
:100150004307970A9409080C87004307970A050686
:10016000AF0A0000060C87004307AF0A320C960066
:100170004306E80A350C96004306D50A310C960072
:100180004306FB0A0506C20A0000E00C870043078D
:10019000C20A9409030C87004307C20A2A096700B0
:1001A0005F00000C07001100450A0506D50A000093
:1001B000E00C87004307D50A9409030C8700430726
:1001C000D50A2A0967005F00000C07001100D60A53
:1001D0000506E80A0000E00C87004307E80A9409D6
:1001E000030C87004307E80A2A0967005F00000C38
:1001F00007001200050B0506FB0A0000E00C870053
:100200004307FB0A9409030C87004307FB0A2A09EA
:1002100067005F00000C07001300530B320C9700BF
:1002200043078E0B6507780B0506120B0000AF0C19
:1002300087004307120B94091E0C87004307120B1B
:100240009409080C87004307120B2F0967005F0011
:10025000000C0700120003096507780B05062C0B3C
:100260000000AF0C870043072C0B94091E0C87007D
:1002700043072C0B9409080C870043072C0B2F090C
:1002800067005F00000C070012000309020C3A002F
:100290001300970B05064A0B320C870043074A0BE5
:1002A0009409300C870043074A0B9409310C8700EE
:1002B00043074A0B94090702360005065D0B000050
:1002C000300C870043075D0B9409070235000506D3
:1002D000670B0000300C87004307670B9409300C54
:1002E00087004307670B9409070237006507B20BC5
:1002F000970A110008092507810B6507780B250669
:100300007D0B090925067D0B8606890B1300630901
:100310008E0B8607860B18091300B609310C960060
:1003200043061300920B320C970043060E0B2C0B66
:100330006507780B2507980B6507780B25069C0B3E
:10034000180925069C0B8606AB0B13006309020CEB
:100350003A001300970B18091300B609020C3A0073
:100360001300970B1300810B6506B80B0000B60B4A
:100370005F000F0C0500230C3200410C9500430672
:10038000F40B2506B80B60096507B80B8606C40B8D
:10039000F202C30B6507B80B8606F40B350C870019
:1003A0004307CA0B94092E0C87004307CA0B940914
:1003B000300C87004307CA0B9409200C87004307C1
:1003C000CA0B0506E10B0000200C87004307E10B78
:1003D000410C27005F00000C0700060C2800E80213
:1003E000EF0B5F00FF0C070060096507B80B86067E
:1003F000F50BF40BFF0FFF0FFF0FFF0FFF0FFF0FAA
:100400000B0C2800E802020A0C000506050A0C0085
:1004100065071000780BA20C87004307080A05093E
:10042000930C87004307080A050907023800860C69
:1004300098004306230AB50C98004306230AA90C2A
:1004400098004307080A0506230A0000270C8700C6
:100450004307230A080C27005F00000C070005066D
:100460002F0A080C27000507330A000C270005098E
:10047000E00C27000509030C2700050967000009A7
:1004800000005F00FF0C07000D000507450A200C67
:1004900027000509000C27000509030C27000509A2
:1004A0003C0C27000509E40C27000509240C270053
:1004B0000509620C27000509340C27000509000C0A
:1004C00027000509000C27000509400C2700050935
:1004D000AC0C27000509000C27000509100C2700AB
:1004E0000509100C270005093C0C27000509050C1F
:1004F00027000509000C27000509110C2700050934
:10050000360C27000509F40C27000509220C2700EA
:100510000509620C27000509340C27000509000CA9
:1005200027000509000C27000509510C27000509C3
:10053000AC0C27000509140C27000509000C270046
:100540000509110C27000509360C270005090C0CBC
:1005500027000509230C27000509620C270005095F
:10056000340C27000509000C27000509000C2700A2
:100570000509510C27000509AC0C27000509070CDB
:1005800027000509000C27000509030C27000509B1
:10059000240C270005090C0C27000509000C270076
:1005A00005095F00FF0C07001000790B0507D60A4C
:1005B000200C27000509000C27000509030C270063
:1005C00005093C0C27000509000C27000509100C43
:1005D00027000509100C270005093C0C2700050918
:1005E000040C27000509000C27000509100C270042
:1005F0000509360C27000509080C270005090C0C15
:1006000027000509110C270005093C0C27000509E6
:10061000A40C27000509210C27000509620C2700FE
:100620000509340C27000509040C27000509090CED
:1006300027000509320C27000509360C270005099B
:10064000000C27000509000C27000509520C2700A3
:100650000509AC0C27000509440C27000509250CE9
:1006600027000509620C27000509340C270005093D
:10067000000C27000509000C27000509500C270075
:100680000509AC0C27000509D80C27000509240C26
:1006900027000509620C27000509340C270005090D
:1006A000000C27000509000C27000509500C270045
:1006B0000509AC0C27000509880C27000509220C48
:1006C00027000509620C27000509340C27000509DD
:1006D000DE0C27000509080C27000509320C27004D
:1006E0000509360C27000509000C27000509000C38
:1006F00027000509520C27000509AC0C2700050945
:10070000D80C27000509230C27000509620C2700D7
:100710000509340C27000509000C27000509000C09
:1007200027000509500C27000509AC0C2700050916
:100730000C0C27000509230C27000509620C270073
:100740000509340C27000509000C27000509000CD9
:1007500027000509400C27000509AC0C27000509F6
:10076000070C27000509000C27000509030C2700CA
:100770000509240C270005090C0C270005095F005A
:10078000FF0C07001000790BFF0FFF0FFF0FFF0F8B
:10079000FF0FFF0FFF0FFF0FFF0FFF0FFF0FFF0FE9
:1007A000FF0FFF0FFF0FFF0FFF0FFF0FFF0FFF0FD9
:1007B000FF0FFF0FFF0FFF0FFF0FFF0FFF0FFF0FC9
:1007C000FF0FFF0FFF0FFF0FFF0FFF0FFF0FFF0FB9
:1007D000FF0FFF0FFF0FFF0FFF0FFF0FFF0FFF0FA9
:1007E000FF0FFF0FFF0FFF0FFF0FFF0FFF0FFF0F99
:1007F000FF0FFF0FFF0FFF0FFF0FFF0FFF0FFF0F89
:100800000506000A0C000507030A200C2700000952
:10081000380C27000009110C27000009000C2700E4
:100820000009000C27000009600C27000009030CD8
:1008300027000009240C27000009000C27000009EC
:10084000000C27000009E20C27000009900C27008B
:100850000009000C27000009000C27000009E40C27
:1008600027000009900C27000009FF0C2700000951
:10087000FF0C27000009630C27000009240C270047
:100880000009260C27000009200C27000009820C13
:1008900027000009000C27000009000C27000009B0
:1008A000000C27000009E40C27000009A00C270019
:1008B0000009FB0C27000009FF0C27000009610C50
:1008C00027000009040C27000009010C270000097B
:1008D000000C27000009E70C27000009240C270062
:1008E0000009D00C27000009800C27000009800CAB
:1008F00027000009AF0C270000092E0C2700000973
:10090000010C27000009220C27000009920C270087
:1009100000092F0C27000009010C27000009230CF7
:1009200027000009920C27000009260C2700000967
:10093000100C27000009430C27000009000C2700B9
:1009400000091A0C27000009000C27000009030CFD
:1009500027000009240C27000009030C27000009C8
:10096000000C27000009430C27000009140C270085
:100970000009010C27000009000C27000009070CE2
:1009800027000009240C27000009BD0C27000009DE
:10099000050C27000009040C27000009080C27009B
:1009A0000009CC0C27000009800C27000009870CE7
:1009B00027000009AF0C27000009000C27000009E0
:1009C000000C27000009070C27000009240C270051
:1009D0000009BD0C27000009050C27000009040CC4
:1009E00027000009080C27000009CC0C270000098B
:1009F000800C27000009870C27000009AF0C270096
:100A000000095F00FF0C07000D000507050B200C17
:100A100027000009000C27000009030C270000092B
:100A20003C0C27000009000C27000009100C2700CF
:100A30000009100C270000093C0C27000009040CD9
:100A400027000009000C27000009100C27000009EE
:100A5000360C27000009080C270000090C0C2700A1
:100A60000009110C270000093C0C27000009840C28
:100A700027000009220C27000009620C270000094A
:100A8000340C27000009380C27000009090C270046
:100A90000009320C27000009360C27000009000C61
:100AA00027000009000C27000009520C270000094C
:100AB000AC0C27000009980C27000009250C270022
:100AC0000009620C27000009340C27000009000C03
:100AD00027000009000C27000009500C270000091E
:100AE000AC0C27000009040C27000009260C270085
:100AF0000009620C27000009340C27000009000CD3
:100B000027000009000C27000009500C27000009ED
:100B1000AC0C27000009500C27000009230C27000B
:100B20000009620C27000009340C27000009120C90
:100B300027000009090C27000009320C27000009D2
:100B4000360C27000009000C27000009000C2700C4
:100B50000009520C27000009AC0C27000009A80C62
:100B600027000009240C27000009620C2700000957
:100B7000340C27000009000C27000009000C270096
:100B80000009500C27000009AC0C27000009D80C04
:100B900027000009230C27000009620C2700000928
:100BA000340C27000009000C27000009000C270066
:100BB0000009400C27000009AC0C27000009070CB5
:100BC00027000009000C27000009030C270000097A
:100BD000240C270000090C0C270000095F00FF0C03
:100BE00007001000790BFF0FFF0FFF0FFF0FFF0F24
:100BF0005208450856082D08310839084B08FF0FE0
:100C0000E2018308C308A50801080308260826088E
:100C1000A0082608060825082508630863080008B8
:100C20008408E20141084108E608C60805082708CB
:100C30002308A40861080708210821084008400883
:100C400000088408E2012708A708A208020827086C
:100C5000250821088108210803086408640843085E
:100C60004308000884080506330A0C000B0C280012
:100C7000E802380A0C00020C2900E9023D0A0C00C7
:100C80006606400A00006607430AEF02400A0C00AD
:100C90006606480A3B090C00360C96000306530A08
:100CA0001F0C2A00550A2F0C2A00FF0C2900FF0CEC
:100CB000280065071000780BE802590AE902570A74
:100CC000EA02550A0C008606B60A65071000780B82
:100CD0006606650A440C86004307650A3B096606FA
:100CE0006F0A000C86004307650A3B09090C2F00B8
:100CF00040096606790A000C86004307650A020C63
:100D00002F0040090000840C26005F00180C06002C
:100D100048095F00FF0C0600000066068D0A240CDF
:100D200086004307650A0F0C31006606950AE20C3F
:100D300086004307950A3B0966069C0AE20C86007A
:100D400043079C0A3B096606A30AE20C8600430798
:100D5000A30A3B09020C2F004009410C95004306F1
:100D60002D0B450C95004306400B1A0B8607630AB2
:100D7000FF0C3900F902BF0A4C094F0C3900650716
:100D80001000780B6606BF0A100C86004307BF0AE6
:100D90006607C80A6606CA0AF70C86004307BF0A38
:100DA0003B096606D10A140C86004307BF0A3B09BB
:100DB000050C2F0040096606DB0A100C860043076D
:100DC000BF0A3B09A60C26005F00180C0600480964
:100DD0005F00FF0C06006606EB0A360C8600430730
:100DE000BA0A3B096606F20A320C86004307BF0ABC
:100DF000100C31006606FA0AF20C86004307FA0A64
:100E00003B096606010BF20C86004307010B3B0908
:100E10006606080BF20C86004307080B3B09020C20
:100E20002F004009410C950043062D0B450C950001
:100E30004306400B70005F00180C0600100200090A
:100E4000260000006606210BB002F1021E0B000016
:100E500000005F00FF0C06000D0070005F00180C22
:100E6000060010022209260000006606340BB002BC
:100E7000F102310B000000005F00FF0C06000D00C6
:100E800070005F00180C0600100211092600000017
:100E90006606470BB002F102440B000000005F0041
:100EA000FF0C06000D000507530B200C270033092B
:100EB000000C27003309030C270033093C0C2700E2
:100EC0003309C00C27003309230C27003309600CB9
:100ED00027003309AC0C27003309070C270033091E
:100EE000000C27003309030C27003309240C2700CA
:100EF00033090C0C270033095F00FF0C07001000BA
:100F0000790BFF0C2A00FF0C2900FF0C2800650656
:100F10001000B80BE802870BE902850BEA02830B8D
:100F20001000B40B310C9600430710008E0B6507C0
:100F30001000780B25061000980B000C8700430763
:100F4000970B000065071000780B0506A20BA20C9A
:100F500087004307970B3309930C87004307970BD0
:100F6000330907023800860C98004306BF0BB50C06
:100F700098004306BF0BA90C98004307970B050682
:100F8000BF0B0000270C87004307BF0B080C27008E
:100F90005F00000C07000506CB0B080C27000507B7
:100FA000CF0B000C27003309E00C27003309030C9A
:100FB000270033096700360900005F00FF0C0700B7
:100FC000FA02970B1000980BFF0FFF0FFF0FFF0F98
:100FD000FF0FFF0FFF0FFF0FFF0FFF0FFF0FFF0FA1
:100FE000FF0FFF0FFF0FFF0FFF0FFF0FFF0FFF0F91
:100FF000FF0FFF0FFF0FFF0FFF0FFF0FFF0F000A85
:00000001FF
