:020000040000FA
:10000000990083169F01831255345334423432349D
:100010004D344F3444343434413482075334433400
:10002000453445343230A600C730A70000006400D4
:0C003000A70B16280000A60B14280334B0
:10020000C2306200FF30AA0065000230A200122056
:10021000A20B07290630A2001220A20B0C290E30D7
:100220001320851920292830A200851920291220A1
:10023000A20B15291B29851D1B293F3065001F298D
:100240008510AA102A086500AA142A0865001E3025
:10025000A2001220851D2029A20B29299130A2007D
:10026000A9014421851D2029A20B37212421A901A0
:100270004421851D2029A20B37213E21AA142A08DA
:1002800065001E30A20063001320132013201320EA
:100290001320132013202D306500123085004A30C2
:1002A00013200430A30029080D20A800A809083055
:1002B000A400AA142A08650004301320A80CF83002
:1002C00085000318AA14031CAA102A08650004302C
:1002D0001320A40B5E29AA102A08650008301320F9
:0802E000A90AA30B5329080031
:02400E00D43F9D
:00000001FF