:020000040000FA
:1000000099008316FF2390009F01831255345334C7
:10001000423432344D344F34443434344134820722
:1000200053344334453445343230A600C730A7003A
:1000300000006400A70B18280000A60B1628033444
:10020000C2306200FF30AA0065000230A200142054
:10021000A20B07290630A2001420A20B0C290E30D5
:100220001520851920292830A2008519202914209D
:10023000A20B15291B29851D1B293F3065001F298D
:100240008510AA102A086500AA142A0865001E3025
:10025000A2001420851D2029A20B29290830A20004
:10026000A9013721851D2029A20B30292429A200AC
:100270004A3015200430A30029080F20A800A8093F
:100280000830A400AA142A08650004301520A80C20
:10029000F83085000318AA14031CAA102A08650068
:1002A00004301520A40B4729AA102A08650008303D
:0A02B0001520A90AA30B3C29033412
:02400E00D43F9D
:00000001FF