:020000040000FA
:1000000007309F0008290830A100AC0D03181E28F6
:100010007F3066000B280C283F3066000F28102820
:10002000A10B05287F3066001528162817281828E8
:1000300019283F3066001C281D280800BF306600C4
:1000400021282228FF30660025282628BF30660098
:1000500029282A283F3066002D282E28A10B0528A4
:100060007F306600332834283528362837283F303B
:1000700066003A283B2800344230AB0086018316E4
:10008000C030620083127F30660046284728482827
:1000900049284A283F3066004D284E282B08AC00DE
:1000A00003202D08AC0003202A08AC0003207F3079
:1000B00066005A285B285C285D285E28FF306600B1
:1000C00061286228860183168030620083126430C2
:1000D000AE0077206C20003486018316C7306200A2
:1000E0008312FF306600AA01AD01AB010800C830E1
:1000F000AF00000000000000000000000000AF0B97
:100100007928AE0B7728003483168730620083127B
:10011000FF3066008601AA01AC01AF01AB01AD0161
:100120000034A300FA30A4000000A40B9428A30B11
:1001300092280034A601A101A801A201A901A701EA
:10014000A501A301A401AA01AD01AB018601B00183
:100150000034A101A100823091200430A2002708C0
:10016000E120A600A6090830A500FF30660008308F
:100170009120A60C06100318FF30031CFE30660009
:1001800008309120A50BB928FE306600163091206A
:10019000A70AA20BAF28A10BAB280334A801783023
:1001A000A8000000A80BD128A20BCF2808008101CD
:1001B0000000000000000000811FDC28A10BD728F0
:1001C0000034820753344334453449345334433480
:1001D000453449345334433445344934B003861FDD
:1001E000003400000000000000000000061F003482
:1001F0008601FF306600A730AD000030AA003C2029
:10020000A830AD000030AA003C20FF30660000346A
:100210008316C730810020308B008312FF306500C9
:10022000FF3066009A2086194329FF30A100D720AD
:1002300086194329861D1A29E930660006163C30C6
:10024000A100D7200616861406111430A200CE2075
:1002500006121C30A200CE20A90B2229FF30660016
:10026000FF30A100D7203730A900E930660006161C
:10027000861006152830A200CE2006123230A200C9
:10028000CE20A90B3729B0015030B000FE306600F7
:100290000614861D1229A7010330A920FF3066002D
:1002A00000303006031DEE20462900005529080EB7
:1002B000C03F093C64052925FF1F013CFF3F213455
:1002C000240821010800092D0C00092D1000092D1A
:1002D00000000000030000100000000001000010FA
:1002E000000000000000BF1F0800B01F1000A41F86
:1002F0001800A51F2000A61F2800A71F3000BD273B
:100300008403F00B00000000E03FBD271000BF2F6A
:100310000000000000200800FF3F013CFE3B2134AC
:1003200024000101002088000020083C103208351C
:100330000000002D801F083C861D0025841D00251F
:10034000821D0025801D0025C53F013CC4292134A4
:100350000938200000000000C43F013C603C21340B
:100360000938200000000000C43F013C303C21342B
:1003700009382000000000000B03F00F000000000F
:10038000FF02F00F00000000F602F00F0000000076
:10039000801F083C861D0025841D0025821D002528
:1003A000801D002574100025701000250020043CDD
:1003B000103284340803F00F0000840C801F083CC6
:1003C000861D0025841D0025821D0025801D002519
:1003D0000020083CA0310835040001240000012D54
:1003E0000020083CA4310835100001240000012D34
:1003F0000020083CA83108351F00013C003F213493
:10040000000000000800E0030400BD272128A4002C
:100410005305083C520508350C00851000000224E5
:100420000000810C04008424FB3F2814000000001D
:100430005400082405008510000002240000810CEF
:1004400004008424FB3F2814F83F82240800E003C2
:1004500000000000AD1E0234CE3A033421008500B6
:100460000000810C04008424211041002618610042
:10047000FF3F6330FA3F8814FF3F42300800E0033B
:1004800000000000401F083C052001114000092425
:10049000C00021300000000000000000000000004B
:1004A000FA3F2914052001110800E00300000000B4
:1004B000E03FBD271000BF2F1400B02F250004001F
:1004C000C03F043C24209000C03F013C0C04212488
:1004D00024083000093820001000053C1C004010A2
:1004E00000000224C03F043C170384242420900011
:1004F000C03F013CA4032124240830000938200017
:100500000800400107000924C0000A240800400137
:1005100008000924C0000A24080040010C00092436
:10052000C0000A240800400112000924C0000A2467
:10053000080040011C000924680CC03F8829010004
:10054000BD2B000006000000070000004009C03F6E
:10055000200DC03FD82D01003D28000008000000FC
:1005600009000000D408C03F1010803F3F24150050
:1005700015000000010000002010803F251200003F
:100580001C10803FFF0000000410803F0020801FEF
:100590001C10803F77200D007020803FFE0000007F
:1005A0000810803FFF0000000010803F0000001F87
:1005B0000810803F552414001410803FE1310920B9
:1005C0001810803F430802000C10803F4430150093
:1005D000F010803F773777076802803F0000000007
:1005E0004002803F050A06064802803F050A0606CB
:1005F0005002803F050A06065802803F050A06069B
:100600000400210D080029252418610124208101FE
:10061000F13F6C15FF3F4A25F33F401500000000F5
:10062000FC3F82240800E003000000000F00861059
:100630000000022400008810010084242508040022
:100640002510050000004B1101004A25070060112C
:10065000FF3F8224F53F68150000000000002811CC
:10066000F83F001001002925000002240800E003E3
:100670000000000000380100C03F103C380C10267C
:10068000100021280800201400000000803F013CD9
:100690005014210C0000000008002130020020143A
:1006A00000000000180010260000080E00000000E6
:1006B0000000090D04000A0D08000C0D0C000D0DC2
:1006C00000002B0D1000082500106B3125104B0188
:1006D00000002A2D0000090D04000A0D080008255D
:1006E000FF3F8C2500000000FA3F801500002A2DF6
:1006F000803F083C7020083500000D2100000124D7
:10070000490F50024F0F54005402490E00000000E0
:10071000E03FBD271000BF2F1400B02F00000000E5
:10072000C03F043C400F8424C703F00F01000524A0
:100730002F00400425000200252010000020053C69
:10074000D028A534CA03F00F000806242800401062
:10075000000000000020083CD028083521000201DC
:100760000000002100000000CD03F00F2520100044
:100770000020043CD02884340020063CA031C6343C
:100780000020063C1031C634C43F083C1002083536
:100790000938000100000000C53F083CF428083576
:1007A0000938000100000000C53F083C002A083558
:1007B00009380001000000000020043C103184349E
:1007C0000020053CD030A534C103F00F000000002C
:1007D00007004010010004240C0000000020043C2D
:1007E000D030843401000524C403F00F0000062437
:1007F0001000BF0F1400B00F000000000800E0035D
:100800002C01F00F000000000E004010000000005E
:100810000020083C1020093C00000A3C802F4A358B
:100820000800091100000B0DFD3F6A1504000825A2
:10083000E03F082500020A2DC03F093C340229256B
:100840001C00092D00301D3CF03FBD375B00F00F50
:10085000000000000000083C0010083500301D3C7E
:10086000F03FBD3708000001000000000000082430
:100870000F0000000000073D0100073D0F000000D1
:10088000C01F012DFA3F2014400008250000082455
:100890000F0000000000163D0100163D0F00000093
:1008A000C00F012DFA3F2014400008250800E00386
:1008B00000000000FC3FBD270000BF2FC03F043CEC
:1008C0000301F00F1000053C160040100000022448
:1008D000C03F043C10038424E900F00F25280200E7
:1008E00010004010000002240020083C0120093CB8
:1008F0000000003D000000000000000000000000BB
:10090000C03F013C2108220002000424000005240D
:100910000000062400000724080020000000102426
:10092000FA000124803F083C7020012100000000F3
:100930000000000000000000F93F0010000000006F
:1009400000000524000006240000072402000424FF
:10095000FC000824FC3F0825000000000000000007
:100960000000000000000000FA3F00150400402CC9
:100970000020083C7C0808350020093CAC372935AC
:100980000400082500000000000000000000000036
:1009900000000000FA3F09150000002D6000042C43
:1009A0006400002CFF0001246800012C002D0400CD
:1009B0000000013C2128A103003FBD2725301D0078
:1009C00001201C3C70089C37801F083C861D0025B8
:1009D000841D0025821D0025801D00250020083C67
:1009E000FC1D0835010001240000012D0020083CF9
:1009F000103208350000002D8202F00F00000000C8
:100A000000001A3C802F5A37080040030000000005
:100A10004B05520E450C00124F0D56055200722F19
:100A20006D303A0F530453195300722F6D303A1042
:100A30005331441256006324722F6D303A1C5319FF
:100A40005314450D2E034E063B31000000000000FC
:100A50000000A1100100A52400008120FF3FC62452
:100A600000000000FA3FC014010084240800E003E5
:100A700000000000250004002508050000000A1100
:100A800000002B110100082504004B1523104B0119
:100A9000FA3F401501002925000002240800E00368
:100AA00000000000FC3FBD270000BF2F0000000039
:100AB00000000C240000A110000000000F00201016
:100AC00000000224DD00F00F000000000C00A30C69
:100AD0001000A5240F006130050020100000000068
:100AE000FF3F013CF03F21342418610010006324D3
:100AF000F03F401421208301231083010000BF0F29
:100B00000000012D0020043C002084340203F00F7B
:100B100000200524C43F013C903F213409382000C7
:100B200004000424FC02F00F000004240503F00F6D
:100B3000030004240020043CA4318434C43F013C5D
:100B4000F83F2134093820000000840C0020053CC7
:100B5000A031A5340000A50CC53F013CBC002134E8
:100B60000938200001000424F902F00F01000424D8
:100B7000801F083C861D0025841D0025821D002540
:100B8000801D002500000000801F083C7410002D0F
:100B9000C53F013C302D2134093820007010002D54
:100BA000F602F00F00000000020004240C00000018
:100BB0001000BF0F000000000800E0032000BD2768
:100BC000A0000A240800400154000924A0000A24BF
:100BD0000800400144000924B0000A240800400134
:100BE00018000924C0000A2408004001000009245C
:100BF000C0000A240800400101000924C0000A24A2
:100C0000252802001200401000000224C03F013CD1
:100C10002408300021082200C03F123C1011522647
:100C2000241050020000500E10005226080000123E
:100C30000000022400004426DD00F00F25281100EA
:100C4000FF3F1026F93F40143000522625101200B5
:100C50001000BF0F1400B00F000000000800E003F8
:100C60002000BD27C03FBD272000BF3F2800A43F74
:100C70003000B03F00000000FF1F043CC03F103CAC
:100C8000B0041026FF1F013CFF3F21342400010265
:100C900009380002FF3F84342101F00F25000200D3
:100CA000401F083C03000124042001210000000033
:100CB0002C00010E2000BF1F2800A41F3000B01F11
:100CC000080020004000BD27FF3F023CFF3F4234A8
:100CD0001400E0180000000004008424FC3F882475
:100CE00025080600251007002B0805010D0020101F
:100CF0000000000000000B0D0400082500002C0D72
:100D00004402803F000405004C02803F00040500BF
:100D10005402803F000405005C02803F000405008F
:100D20001010803F4F2416001A000000020000003F
:100D30002010803F251200001C10803FFF000000A3
:100D40000410803F0020801F1C10803F77200D0082
:100D50007020803FFC0000001410803FFF00000066
:100D60000414803FA81D801F1410803FE1310B2028
:100D70001810803FFF0000000814803F0020401F33
:100D80001810803F1100062F0C10803FFF0000005C
:100D90000014803F0000001E0C10803F44341800F7
:100DA0001414803FFF0000000C14803F1000401F0F
:100DB0001414803FE13109201814803FFF00000027
:100DC0001C14803FFF0000001014803F000000143E
:100DD0001C14803F55101A002014803FFF1005009E
:100DE0004001FE3F0004801F4401FE3F0000801FC1
:100DF000F010803F773777077015803F7737770798
:100E00000000022400000324000004240000052444
:100E10000000062400000724000008240000092424
:100E200000000A2400000B2400000C2400000D2404
:100E300000000E2400000F240000112400001224E2
:100E400000001324000014240000152400001624C0
:100E500000001724000018240000192400001A24A0
:100E600000001B2400001C2400001D2400001E2480
:100E700000001F24003880000000000000188000DF
:100E8000000000000028800000000000003080000A
:100E90000000000000088000000000000018800032
:100EA00000000000C40C0924FE3F013C3001292C45
:100EB0000100013C002081000000082400100924EA
:100EC0000000002D100008250000000000000000B8
:100ED00000000000FA3F0915000000000300012493
:100EE000803F083C702001210000000000208000AD
:100EF00000000000FE3F083CC00C01243001012D21
:100F00002000BD27A0000A24080040014200092457
:100F1000A0000A240800400143000924B0000A246C
:100F20000800400132000924B0000A2408004001F2
:100F300034000924B0000A240800400136000924C6
:100F40006324722F6D3A53195314450D2E034E0628
:100F50003B31000000000000000000000000000025
:100F6000E03FBD271000BF2F1400B02F1800B12F95
:100F70001C00B22F003CBD27FF1F163CFF3FD6369A
:100F8000C03F013CB0042124240836000938200069
:100F900025201600510040102528020025081D00BC
:100FA0001800A10EC03F043C360384242420960080
:100FB0000938200004000524480040042D000200E8
:100FC0002D2010001C00A10E25281100093820003A
:100FD000000406242000A10E2D2010000938200056
:100FE000250002003D00001A000000002D00110045
:100FF0002D082202310009110000000000000A1132
:084000008F3FFF3FFF3FFF3F30
:02400E00BA3FB7
:00000001FF
