:1000000007309F0008290830A100AC0D03181E28F6
:100010007F3066000B280C283F3066000F28102820
:10002000A10B05287F3066001528162817281828E8
:1000300019283F3066001C281D280800BF306600C4
:1000400021282228FF30660025282628BF30660098
:1000500029282A283F3066002D282E28A10B0528A4
:100060007F306600332834283528362837283F303B
:1000700066003A283B2800344230AB0086018316E4
:10008000C030620083127F30660046284728482827
:1000900049284A283F3066004D284E282B08AC00DE
:1000A00003202D08AC0003202A08AC0003207F3079
:1000B00066005A285B285C285D285E28FF306600B1
:1000C00061286228860183168030620083126430C2
:1000D000AE0077206C20003486018316C7306200A2
:1000E0008312FF306600AA01AD01AB010800C830E1
:1000F000AF00000000000000000000000000AF0B97
:100100007928AE0B7728003483168730620083127B
:10011000FF3066008601AA01AC01AF01AB01AD0161
:100120000034A300FA30A4000000A40B9428A30B11
:1001300092280034A601A101A801A201A901A701EA
:10014000A501A301A401AA01AD01AB018601B00183
:100150000034A101A100823091200430A2002708C0
:10016000E120A600A6090830A500FF30660008308F
:100170009120A60C06100318FF30031CFE30660009
:1001800008309120A50BB928FE306600163091206A
:10019000A70AA20BAF28A10BAB280334A801783023
:1001A000A8000000A80BD128A20BCF2808008101CD
:1001B0000000000000000000811FDC28A10BD728F0
:1001C0000034820753344334453441345334433488
:1001D000453441345334433445344134B003861FED
:1001E000003400000000000000000000061F003482
:1001F0008601FF306600A730AD000030AA003C2029
:10020000A830AD000030AA003C20FF30660000346A
:100210008316C730810020308B008312FF306500C9
:10022000FF3066009A2086194329FF30A100D720AD
:1002300086194329861D1A29E930660006162830DA
:10024000A100D7200616861406110A30A200CE207F
:1002500006121C30A200CE20A90B2229FF30660016
:10026000FF30A100D7203730A900E930660006161C
:10027000861006152130A200CE2006122830A200DA
:10028000CE20A90B3729B0015030B000FE306600F7
:100290000614861D1229A7010330A920FF3066002D
:0E02A00000303006031DEE20462900005529CF
:00000001FF
