:08000000E2018608C608A5080C
:08000800140806082B082B0860
:08001000B80833080B082D08A5
:080018002D080B089B089B0852
:080020000108660866080008EB
:08002800910840083C08800823
:08003000700800084A084208AC
:0800380040083408F408000838
:0800400000084A0842080A0802
:080048004A08120802080A0828
:080050000A085F00000C070024
:0800580005062C0A05072E0A1B
:080060005F00FF0C07000C001B
:080068000506340A0507360AFB
:08007000EC02340A0C0014023A
:080078002F0005063D0A0507F3
:080080003F0A070234000902E7
:08008800940043073B0A010C40
:08009000880043060C00050680
:080098004B0A05074D0A09029D
:0800A000870043064B0A0A0227
:0800A800870043073B0A020C2C
:0800B000880043060C00050660
:0800B8005B0A05075D0A0B025B
:0800C000870043073B0A0C0016
:0800C800650067005D00000CFB
:0800D0000500000C07005E00B2
:0800D800FF0C0500FF0C0700FE
:0800E0005F00FF0C0500FF0C9E
:0800E80007007B0072007300A9
:0800F0007400680069006A0059
:0800F8006B0000000000000095
:080100000000000000000000F7
:080108000000000000000000EF
:080110000000000000000000E7
:080118000000000000000000DF
:080120000000000000000000D7
:080128000000030C2800030C89
:080130002900440C2A00010C17
:080138002B003B09020C28001A
:08014000000C2900C20C2A008A
:080148003B090506A50A0507A5
:08015000A70A07023B00160C90
:080158009B004306B30A1E0CD4
:080160009B004306C90A020CD2
:080168002800410C2900000CE5
:080170002A003B090B0C2C00D6
:080178003409910C270029094C
:080180000506C00A0507C20ACA
:08018800210C87004306DF0A89
:08019000B90A020C2800100C52
:080198002900F70C2A003B09C5
:0801A000070C2C003409B30C1C
:0801A800270029090506D60A0B
:0801B0000507D80A230C8700A3
:0801B8004306DF0ACF0A7300C1
:0801C000060C3700030C2800B7
:0801C800FA0C2900FF0C2A00CB
:0801D000FF0C2B00030C3200B0
:0801D8003B09F202EC0A000CE5
:0801E0000700130200092700CB
:0801E8000506F40A0507F60AFA
:0801F000B3021702930043075C
:0801F800F10A140CF701B60234
:08020000FF0C0700020C960040
:0802080043062A0B030C280039
:08021000030C2900440C2A0034
:08021800010C2B003B09160C40
:080220009B0043061D0B030CBB
:080228002800230C2900220C20
:080230002A00020C2B003B091F
:08023800260B030C2800210C29
:080240002900200C2A00020C29
:080248002B003B09D50C8F00CF
:080250004306E20A45072A0BF0
:0802580045062C0B5F00FF0CB2
:0602600007000000310B55
:020FFE00640A83
:08200000F40FFA0FF40FF10FC9
:08200800F50FF00FFF0FFF0FB1
:08201000FF0FFF0FFF0FFF0F90
:08201800FF0FFF0FFF0FFF0F88
:08202000F203FF0FFFFF02AB0A
:00000001FF
