:020000040000FA
:100000002500420A0702E20143084F085008590838
:1000100052084908470848085408B8083208300808
:10002000300830083E0832083008300831082E0801
:1000300050084C0841085908530854084108590809
:100040005308540849084F084E084D084F08440803
:1000500053082E0843084F084D082E082E0826087E
:100060004D0852082E085408400844085608440811
:100070004D084F08440853082E0843084F082E081F
:1000800055084B08770079007F006A00EB0A66008C
:10009000C70C0200FF0C0600A6074C0A66064E0AB3
:1000A000140C3700FE096606040B640C3700FE09C9
:1000B0006606420A66075A0AE90C06002C0C2A005A
:1000C0008605000026054604170C3F008A098604B1
:1000D000260C3F008A09EA02600AFF0C0600500C59
:1000E0003700FE092D0C2A00E90C060086052604BF
:1000F00046051E0C3F008A098604190C3F008A0938
:10010000EA02760AFF0C0600040B00000000850AD4
:100110000000880A7900C80C39000000F9028D0A35
:10012000FF028B0A0008320C3000FA0C310000008C
:10013000F102970AF002950A0008770037004A0C8E
:100140009409040C3F001302C20932007202080C29
:100150002900FF0C0600040C94093203A6040306D0
:10016000FF0C0307DF0C0600040C9409E902AD0A3A
:10017000DF0C0600080C9409B302FF02A30AF70281
:100180009F0A0308E2015308430845084908530839
:10019000430845084508530843084508410800003E
:1001A000000050084C0841085908530854084108F9
:1001B0005908540849084F084D084F084408530887
:1001C0002E0843084F084D0841084E0844085F08B0
:1001D0004D0852085408750067007400020C27008F
:1001E0001E0C35000209B401A70243040304F50202
:1001F000F20AFA0C94014307880A470A6100E107F2
:10020000FF0AF702FE0A0008FF0C0600FF0C3F0081
:100210008A09A607090B200C3700FE090606040B05
:100220007300030C9D09AA0C3F008A090E0BFF0FF7
:10023000FF0FFF0FFF0FFF0FFF0FFF0FFF0FFF0F4E
:10024000FF0FFF0FFF0FFF0FFF0FFF0FFF0FFF0F3E
:10025000FF0FFF0FFF0FFF0FFF0FFF0FFF0FFF0F2E
:10026000FF0FFF0FFF0FFF0FFF0FFF0FFF0FFF0F1E
:10027000FF0FFF0FFF0FFF0FFF0FFF0FFF0FFF0F0E
:10028000FF0FFF0FFF0FFF0FFF0FFF0FFF0FFF0FFE
:10029000FF0FFF0FFF0FFF0FFF0FFF0FFF0FFF0FEE
:1002A000FF0FFF0FFF0FFF0FFF0FFF0FFF0FFF0FDE
:1002B000FF0FFF0FFF0FFF0FFF0FFF0FFF0FFF0FCE
:1002C000FF0FFF0FFF0FFF0FFF0FFF0FFF0FFF0FBE
:1002D000FF0FFF0FFF0FFF0FFF0FFF0FFF0FFF0FAE
:1002E000FF0FFF0FFF0FFF0FFF0FFF0FFF0FFF0F9E
:1002F000FF0FFF0FFF0FFF0FFF0FFF0FFF0FFF0F8E
:10030000FF0FFF0FFF0FFF0FFF0FFF0FFF0FFF0F7D
:10031000FF0FFF0FFF0FFF0FFF0FFF0FFF0FFF0F6D
:10032000FF0FFF0FFF0FFF0FFF0FFF0FFF0FFF0F5D
:10033000FF0FFF0FFF0FFF0FFF0FFF0FFF0FFF0F4D
:10034000FF0FFF0FFF0FFF0FFF0FFF0FFF0FFF0F3D
:10035000FF0FFF0FFF0FFF0FFF0FFF0FFF0FFF0F2D
:10036000FF0FFF0FFF0FFF0FFF0FFF0FFF0FFF0F1D
:10037000FF0FFF0FFF0FFF0FFF0FFF0FFF0FFF0F0D
:10038000FF0FFF0FFF0FFF0FFF0FFF0FFF0FFF0FFD
:10039000FF0FFF0FFF0FFF0FFF0FFF0FFF0FFF0FED
:1003A000FF0FFF0FFF0FFF0FFF0FFF0FFF0FFF0FDD
:1003B000FF0FFF0FFF0FFF0FFF0FFF0FFF0FFF0FCD
:1003C000FF0FFF0FFF0FFF0FFF0FFF0FFF0FFF0FBD
:1003D000FF0FFF0FFF0FFF0FFF0FFF0FFF0FFF0FAD
:1003E000FF0FFF0FFF0FFF0FFF0FFF0FFF0FFF0F9D
:1003F000FF0FFF0FFF0FFF0FFF0FFF0FFF0FA00CEF
:080400000F000F000F000F00B8
:021FFE00EA0FE8
:00000001FF
