:020000040000FA
:100000002500070C24000F0C09097A0B84016000FD
:10001000A40284011F0E4307060A00080F022F00E6
:10002000AF02220050080008AA080008B80BC30B52
:10003000CA0BDD0BEC0BF30BFF0FFF0FFF0FFF0FD6
:10004000FF0FFF0FFF0FFF0FFF0FFF0FFF0FFF0F40
:10005000FF0FFF0FFF0FFF0FFF0FFF0FFF0FFF0F30
:10006000FF0FFF0FFF0FFF0FFF0FFF0FFF0FFF0F20
:10007000FF0FFF0FFF0FFF0FFF0FFF0FFF0FFF0F10
:1002D000FF0FFF0FFF0FFF0FFF0F6E0BFF0CED0166
:1002E0000307EE000E020D014307770B780B6E0B30
:1002F0000C020F0A820C0200FF0C0600070C2700FC
:10030000AD0B0604830BA607860B870B830B880BAC
:10031000A6068B0B8C0B880B69002A0C2A00120C8A
:100320002B009D0BA607950B960B9D0B970BA60517
:10033000A6069B0B9C0B970BA902FF0CEA01030777
:10034000EB000B020A014307A60BA70B920BC90097
:100350004306AB0BAC0BAD0B7E0BE702B00BB10B46
:10036000810B040C2D00100C2E00160C2C006D0BB4
:10037000F80C0600460526054605500C2D006E00BB
:10038000170C2C006D0B4604AA0C2D006E00180CE7
:100390002C006D0B6606CD0BCE0BCF0BD00BBC0B20
:1003A0002604FF0C0600120C2900DD0B100C2D009A
:1003B000270C2E00190C2C006D0BE902E00BE10B51
:1003C000D60BF80C0600460506054605640C2D0004
:1003D0006E001A0C2C006D0B46044B0C2D006E00A9
:1003E0001B0C2C006D0B8606F60BF70BF80BF90BAC
:1003F000E50B0604FF0C06007E0B000AFF0F740CD1
:0804000003000B000E000900CF
:021FFE00EA0FE8
:00000001FF