:080000005F00FF0C0700FF0C7C
:080008000600FF0C05005A0080
:08001000080C06005900400035
:0800180006005B00F30C06007A
:080020005F0003005D00F70C16
:0800280006005F00070C050053
:08003000FF0C0600FF0C0700A5
:08003800C70C0200640059002E
:080040004000060033005F00E0
:0800480063062F0A53069D0B0D
:080050006606A90B330611003E
:08005800110A1100870A6E0075
:08006000EE05D40A640C28002F
:080068003D0C210001024307D9
:08007000360AE802340A0C0014
:080078005A00040C06005900B7
:08008000400006005B00F30CD8
:0800880006005F000C004505B5
:080090003B0C2A00D40C2900EE
:080098006502030C2800E802D8
:0800A0004F0AE9024D0AEA02D1
:0800A8004A0A0C0045043B0C60
:0800B0002A00D40C2900030C06
:0800B8002800E8025D0AE902DC
:0800C0005B0AEA02590A0C0078
:0800C800E2015308430845085A
:0800D0004108530843084508EC
:0800D8004908530843084508DC
:0800E0004508AE06760A8E0603
:0800E800780A7B0A6B007D0A17
:0800F000080C2B007D0A040C32
:0800F8002B005F000B0C05005A
:08010000040C2F000B0264093E
:080108002D006D02080C33000C
:080110005609560947092D03A9
:080118000306910A03075609D2
:08012000920A4709F3028B0A61
:08012800AB02EF02820A45045C
:08013000160C2B005609EB022E
:080138009A0A5F000F0C05009C
:080140000C000506A10A0C00E9
:08014800E2014C081108240833
:08015000E80823089108A40847
:08015800C808EB081108240897
:08016000B00874089108A4081E
:0801680004083C0811083C08E2
:080170002908000831083608D7
:08017800D40823089108AC082B
:080180009108240811083C0855
:0801880038084E083108360862
:08019000D80823089108AC080F
:080198002908000811083C08C9
:0801A0003F084E082008A208E8
:0801A8000506D40A0000530C07
:0801B00087004307D40AA109EE
:0801B800320C87004307D40A52
:0801C000A109300C8700430780
:0801C800D40AA109310C8700E3
:0801D0004307D40AA10907024C
:0801D80030000506ED0A300CB1
:0801E00087004307ED0AA109A5
:0801E80007022F000506F60ACC
:0801F000300C87004307F60AFA
:0801F800A109300C8700430748
:08020000F60AA1090702310012
:08020800410C8F004306140BAA
:08021000450C8F004306160B9C
:08021800520C8F004306160B87
:08022000490C8F004306180B86
:08022800AE05190B8E05190B40
:08023000CE0546069D0B4E05AC
:08023800EE061200EE0A370C7D
:0802400090004306630B390C2A
:0802480090004306630B320C29
:0802500028000506290B00003F
:080258001E0C87004307290B6F
:08026000A109000C870043070F
:08026800290BA109630C8700BA
:080270004307290BA109340C1E
:0802780087004307290B05066E
:080280003F0B0000240C870075
:0802880043073F0BA109100C14
:08029000870043073F0B05073F
:080298004B0B05064D0BE802BB
:0802A0004B0B000C27005F006E
:0802A800A109000C0700A109E7
:0802B000000C2700A109000C5D
:0802B800270005075D0BFF0C98
:0802C00007001100DD0A05062C
:0802C800630B0000DC0C870051
:0802D0004307630B05076A0BED
:0802D80005066C0B240C8700E5
:0802E0004307630B0507720BD5
:0802E8000506740B100C8700E1
:0802F0004307630B05077A0BBD
:0802F80005067C0B450C870094
:080300004307630B000C27000A
:080308005F00000C0700A109D1
:08031000000C2700A109000CFC
:080318002700A109000C2700D9
:08032000A109FF0C0700110008
:08032800DD0A140C2900320962
:080330004606A90BE902970B38
:08033800030064000E04EE0452
:080340004E061F0B1100DD0A3F
:0803480064002E050E041300F1
:08035000840A46079D0B6606B6
:08035800A90B3C09050C29006A
:08036000640C28003D0C210093
:080368002607AE0B010243075A
:08037000B40BE802B20BE90234
:08037800B00B020C2B00320C4B
:0803800091004306C50B010CBE
:080388002B001300FD0A0E0614
:08039000DB0B100C2C007109BD
:08039800EC02CB0B8E07DB0B1E
:0803A000020C2B00320C91004D
:0803A8004306D80B010C2B00E9
:0803B00012005E0B64000E0553
:0803B800FF0C2C007109EC029E
:0603C000DE0B1100870AAC
:080400000506000A0C000002D1
:080408002700A402100C2401DE
:080410000506080AE902030ACF
:0804180005070C0AFF0C0700A8
:080420000D005A00060C060055
:080428005900400006005B00D2
:08043000F30C06005F00640CF0
:080438002B00FF0C2A00FF0C51
:080440002900FF0C280026072B
:08044800300AE802230AE90270
:08045000210AEA021F0AEB0277
:080458001D0A870A2606230A8B
:08046000A20C870043072E0ADD
:080468000009930C8700430713
:080470002E0A0009230C87008D
:0804780043072E0A6400070C83
:080480002900080C2700050605
:08048800430A0000A20C8700EA
:080490004307430A0009930C25
:0804980087004307430A000935
:0804A00007022F00860C8F00FB
:0804A8004306730AB50C8F0036
:0804B0004306730AA90C8F003A
:0804B8004306730A1B0C8F00C0
:0804C0004307430A0506620A26
:0804C8000000A20C87004307AD
:0804D000620A0009930C870089
:0804D8004307620A0009000C51
:0804E00087004307620A140CB7
:0804E80024000506750A00005E
:0804F000270C87004307750A81
:0804F80005077C0A0700050658
:080500007F0A110003090E0738
:080508001000A90B1B0A5900A9
:08051000400006005B004E06EE
:08051800900AF10C060003003B
:08052000F30C06000300E201E8
:0805280023088008AC080C0850
:0805300000080008000824087F
:0805380010083C08E408240847
:080540008008AC08E408220861
:080548009008AC088408BC080F
:08055000340C2A00C80A24083B
:0805580010083C0874082A0891
:080560008008AC0874082808AB
:080568009008AC08BC08D308A0
:08057000340C2A00C80A24081B
:0805780010083C08E4082C08FF
:080580008008AC08F4082A0809
:080588009008AC08A408EC087F
:0805900091083408000800087E
:080598003008AE080C08000851
:0805A00000080008C70802086A
:0805A800340819081908E208E3
:0805B000BA0811081908E2085D
:0805B800BA084E07E30A0B0C20
:0805C00028003E0C110B310C68
:0805C80090004306F00A320C1A
:0805D00090004306F30A350C0C
:0805D80090004306F60AFE0A3A
:0805E000C00C2700F90AD80C39
:0805E8002700F90A0C0C2700A2
:0805F000F90A070C280029009C
:0805F8004000110B020C27006A
:08060000170C28002900370C3B
:08060800900043060D0B390CB4
:08061000900043060F0B070CDC
:08061800110B170C110B6E050C
:08062000270C2A00140C240031
:080628000A0293092000A4025C
:08063000100C2401AA02E802EB
:08063800140B4E061000A40B88
:080640000506200B0000600C10
:0806480087004307200B0009A5
:08065000000C87004307200B9A
:080658000009040C87004307B0
:08066000200B0009080C8700C3
:080668004307200B140C2400D1
:080670000506380B070C87009A
:080678004307380B05063E0B99
:080680000000030C8700430792
:080688003E0B0507450B0506BA
:08069000470B240C870043070F
:080698003E0B05074D0B0700A6
:0806A0000506500B11000309CF
:0806A8000E061000950B100076
:0206B000A40B99
:08080000E2015D081108240863
:08080800000824089108A4086F
:080810006A08EA081108240837
:0808180040087A089108A408C9
:0808200004083C0811083C0823
:08082800290800083108360818
:08083000EC0823089108AC0854
:080838009108240811083C0896
:08084000B8085E083108360813
:08084800F00823089108AC0838
:080850002908000811083C080A
:08085800BF085E082008A20899
:0808600068081108240834089F
:0808680023089108A4086F08A1
:08087000E908110824086008E2
:080878007D089108A4080408A2
:080880003C0811083C0829089E
:080888000008310836082008C1
:0808900023089108AC08900850
:08089800240811083C0848087F
:0808A0006A083108360824083B
:0808A80023089108AC0829089F
:0808B000000811083C084F0884
:0808B8006A082008A20870087C
:0808C000110824080C082508AA
:0808C8009108A408F108E908F9
:0808D0001108240830087D081E
:0808D8009108A40804083C0883
:0808E00011083C08290800087A
:0808E80031083608F808240865
:0808F0009108AC0890082408EF
:0808F80011083C08D808710842
:0809000031083608FC08240848
:080908009108AC082908000861
:0809100011083C08DF08710822
:080918002008A2082B0890083A
:08092000A408210800081008DA
:080928003C08D408E5081108A1
:080930002408040894081108D2
:08093800A6089008240811082C
:080940003C0888087E0831081C
:0809480036085C082B08910839
:08095000AC08B008AF08110863
:080958003C080008000831080A
:08096000360860082B0891081D
:08096800AC082A080008110880
:080970003C088F087E082008F6
:08097800A2082D089008A40854
:080980002108000810083C08E2
:08098800D808E3081108240857
:0809900064089E081108A60886
:080998009008240811083C0836
:0809A000F808C108310836080F
:0809A800CC082D089108AC08F1
:0809B000B008AF0811083C0873
:0809B8000008000831083608B0
:0809C000D0082D089108AC08D5
:0809C8002B08000811083C088F
:0809D000FF08C1082008A2087D
:0809D8000506EC0A0E052F0CC8
:0809E00028002900320C9000F0
:0809E80043060A0B350C9000D8
:0809F00043060E0B360C9000CB
:0809F8004306120B370C9000BE
:080A00004306160B390C9000AF
:080A080043061A0BB80C27008D
:080A100040002B0B380C2700FD
:080A180040001D0BB80C270083
:080A20002F0C1D0B480C2700F0
:080A28005E0C1D0B680C270099
:080A30008D0C1D0BD80C2700F2
:080A3800BC0C2A00140C240080
:080A40000A0200092000A402D3
:080A4800100C2401AA02E802CF
:080A5000200B1100200B2A000D
:080A5800140C24000A02100036
:080A6000A4092000A402100CFF
:080A68002401AA02E8022E0B92
:080A70001100200B05063A0BF2
:080A7800FF0C870043073A0B55
:080A8000EC097F0C870043071D
:080A88003A0BEC09A50C8700F4
:080A900043073A0BEC090702D1
:080A98002F00340C8F0043070E
:080AA0001300890A4E05000C49
:080AA80027005F00FB0C0600B3
:080AB00000000000FF0C06002D
:080AB80010009D0B3C0C27000F
:080AC000140C24000B0C2900AA
:080AC8000506640B110C870008
:080AD0004307640BEC09110C53
:080AD80087004307640BEC09E1
:080AE000000C87004307640BC2
:080AE800EC09090C870043072B
:080AF000640B0506790B000000
:080AF800300C87004307790B65
:080B00000507800B0700050644
:080B0800830B11000309EB024D
:080B10005E0B6400340C2800A8
:080B1800180C2A002B00050651
:080B20008F0BFD0C8700430759
:080B28008F0B0507950B050674
:080B3000970BFF0C870043073F
:080B38008F0B05079D0B05065C
:080B40009F0B850C87004307A1
:080B48008F0B0507A50B050644
:080B5000A70B140C87004307FA
:080B58008F0B0507AD0B05062C
:080B6000AF0BE802AD0B030C22
:080B680027000507B50B000C86
:080B70000700EC09800C2700CE
:080B7800EC09040C2700EC0954
:080B80003C0C2700EC09FF0CFE
:080B880007000507C50B050677
:080B9000C70BEA02C50B000CC3
:080B980027000507CD0B000C3E
:080BA0000700EC09000C27001E
:080BA800EC09000C2700EC0928
:080BB000000C2700EC09FF0C0A
:080BB80007000507DD0B05062F
:080BC000DF0BEB02DD0B880CDA
:080BC80027000507E50B000CF6
:080BD0000700EC09020C2700EC
:080BD800EC09800C2700EC0978
:080BE000A40C2700EC09FF0C36
:060BE80007001000DB0B0A
:080C00000506000A0C00E201E8
:080C08000008E00803080008E1
:080C100000080008000820089C
:080C180038081108000800086B
:080C2000600803082408000825
:080C28000008E2089008000832
:080C30000008E4089008FF0829
:080C3800FF08630824082608E8
:080C40002008820800080008EA
:080C48000008E408A008FB0805
:080C5000FF0861080408010817
:080C58000008E7082408360C2F
:080C60002A006E063A0A310C6D
:080C68002A00D0088008380CB6
:080C70002A003C0A500881082B
:080C78008008AF082E080108F6
:080C8000220892082F08010868
:080C8800230892082608100859
:080C9000430800081A080008DF
:080C980003082408030800080A
:080CA0004308140801080008D4
:080CA800070824086C0C2A0067
:080CB0006E06700A580C2A00C0
:080CB800BD0805080408080846
:080CC000CC0880088708AF088A
:080CC8000008000807082408D9
:080CD000BD080508040808082E
:080CD800CC0880088708AF0872
:080CE000AF080508040808082C
:080CE8004C0881088708AF08E1
:080CF0000008000807082408B1
:080CF800AF0805080408080814
:080D00004C0881088708AF08C8
:080D0800070C2800290040003F
:080D10008C0A5B0C2800400076
:080D18002A00140C24000A0259
:080D200003092000A402100CDD
:080D28002401AA02E8028F0A6F
:080D30006400090611003E0AEF
:080D3800570C29006E06B30AF6
:080D4000570C29000506A20A68
:080D4800AF0C87004307A20A6B
:080D500000091E0C8700430797
:080D5800A20A0009080C870043
:080D60004307A20AC50A0506BB
:080D6800B30A0000AF0C870084
:080D70004307B30A0009060C59
:080D780087004307B30A0009DC
:080D8000080C87004307B30AC9
:080D8800C50A180C2400000C40
:080D900027000506C90A0C0C3E
:080D980087004307C90A0507A3
:080DA000CF0A000C0700050654
:080DA800D30A11000309EB025C
:080DB000A00A0E0511001B0A48
:080DB800E2013B08A00833082A
:080DC00028082008FF080408C0
:080DC80041084408FD0813086E
:080DD0002B086108220813083A
:080DD80031088C08B008030883
:080DE0003A0831083308190834
:080DE80091082506F50A6504D7
:080DF00000006505E802F50AA8
:080DF8000C0065040000650514
:080E00002506000B6504060243
:080E08006505B00E2F00A00CDF
:080E10008F004307000B2506CB
:080E18000B0B650406026505E1
:080E2000B00E2F00B00C8F0092
:080E280043061A0B000C8F00B9
:080E30004307000B25061A0B15
:080E3800650406026505B00E19
:080E40002F00B00C8F004306E7
:080E48003A0BA00C8F004307D8
:080E5000000BEE062D0B4E060F
:080E5800870A100C2800F509BF
:080E6000400026005F001E0C9B
:080E68000600040C2800F50946
:080E7000FF0C06002607DC0B55
:080E780025063A0B6504000099
:080E80006505E60686063A0B43
:080E88002607DC0B2506440BD4
:080E9000650400006505E6069B
:080E980086073A0B2607DC0B6C
:080EA00025064E0B650400005D
:080EA8006505E60686073A0B1A
:080EB0002607DC0B2506580B98
:080EB800650400006505E60772
:080EC00086063A0B2607DC0B45
:080EC8002506620B6504000021
:080ED0006505E60786073A0BF1
:080ED8002607DC0B25066C0B5C
:080EE000650400006505E6074A
:080EE80086073A0B2607DC0B1C
:080EF0002506760B65040000E5
:080EF8006505E60786063A0BCA
:080F0000EE06850B4E06100001
:080F0800C70B900C26005F00EE
:080F10006F0C2506890B650436
:080F1800000065050600250636
:080F20008F0B6504FF0C0600B5
:080F28006505AE069D0B8E0667
:080F30009B0B100C9E0B080C3A
:080F38009E0B40002900080C8B
:080F40002A00FF0C2600030C3F
:080F480028002506A50B650435
:080F500000006505E6068606B7
:080F5800A50B2506AD0B650495
:080F600000006505E6068607A6
:080F6800A50B2506B50B65047D
:080F700000006505E606860796
:080F7800A50BE802A50B5F00C8
:080F80000F0C06000902DC0958
:080F88002506C40B26006504D8
:080F90002F008F036505250603
:080F9800CB0B26006504A90241
:080FA0006505EA02C20BFF0C1B
:080FA8002506D40B06006504C8
:080FB000000065052E063A0B56
:080FB80065042E040E06110071
:060FC0001B0A12003A0BAF
:020FFE00120AD5
:08200000F40FF90FF40FF30FC8
:08200800F40FF50FF50FF20FC4
:08201000F40FF50FF50FF60FB8
:08201800FF0FFF0FFF0FFF0F88
:10202000F9077F0FFFFF02ABFA0280F0FFFF00000D
:00000001FF
