:080000005F00FF0C0700FF0C7C
:080008000600FF0C05005A0080
:08001000080C06005900400035
:0800180006005B00F30C06007A
:080020005F0003005D00F70C16
:0800280006005F00070C050053
:08003000FF0C0600FF0C0700A5
:08003800C70C0200640059002E
:080040004000060033005F00E0
:0800480063062F0A5306A40B06
:080050006606B00B3306110037
:08005800140A11008A0A6E006F
:08006000EE05D50A640C28002E
:080068002D0C210001024307E9
:08007000360AE802340A0C0014
:080078005A00040C06005900B7
:08008000400006005B00F30CD8
:0800880006005F000C004505B5
:080090003B0C2A00E50C2900DD
:080098006502030C2800E802D8
:0800A0004F0AE9024D0AEA02D1
:0800A8004A0A0C0045043B0C60
:0800B0002A00E50C2900030CF5
:0800B8002800E8025D0AE902DC
:0800C0005B0AEA02590A0C0078
:0800C800E2015308430845085A
:0800D0004108530843084508EC
:0800D8004908530843084508DC
:0800E0004508AE06760A8E0603
:0800E800780A7B0A6B007D0A17
:0800F000080C2B007D0A040C32
:0800F8002B005F000B0C05005A
:08010000040C2F000B0264093E
:080108002D006D02080C33000C
:080110005609560947092D03A9
:080118000306910A03075609D2
:08012000920A4709F3028B0A61
:08012800AB02EF02820A45045C
:08013000160C2B005609EB022E
:080138009A0A5F000F0C05009C
:080140000C000506A10A0000F5
:080148000C00E2014C08110853
:080150002408E80823089108C7
:08015800A408C808EB08110817
:080160002408B008740891089E
:08016800A40804083C0811087A
:080170003C08290800083108D1
:080178003608D40823089108A1
:08018000AC08910824081108E5
:080188003C0838084E0831085C
:080190003608D8082308910885
:08019800AC0829080008110859
:0801A0003C083F084E0820084E
:0801A800A2080506D50A0000BB
:0801B000530C87004307D50A38
:0801B800A109320C8700430786
:0801C000D50AA109300C8700EB
:0801C8004307D50AA109310C1F
:0801D00087004307D50AA109CD
:0801D800070230000506EE0AE3
:0801E000300C87004307EE0A12
:0801E800A10907022F00050622
:0801F000F70A300C87004307F9
:0801F800F70AA109300C870091
:080200004307F70AA1090702F8
:080208003100410C8F00430698
:08021000150B450C8F0043069D
:08021800170B520C8F00430686
:08022000170B490C8F00430687
:08022800190BAE051A0B8E053F
:080230001A0BCE054606A40BD3
:080238004E05EE061200EF0A6C
:08024000370C90004306670B28
:08024800390C90004306670B1E
:08025000320C280005062A0B00
:0802580000001E0C87004307A3
:080260002A0BA109000C870024
:0802680043072A0BA109630CF6
:08027000870043072A0BA109D6
:08027800340C870043072A0B38
:080280000506400B0000240CF0
:0802880087004307400BA109A8
:08029000100C87004307400B2E
:0802980005074C0B05064E0B97
:0802A000E8024C0B000C2700E2
:0802A8005F000506550B050778
:0802B000570B000C0700A10927
:0802B800000C2700A109000C55
:0802C00027000507610BFF0C8C
:0802C80007001100E00A050621
:0802D000670B0000DC0C870045
:0802D8004307670B05076E0BDD
:0802E0000506700B240C8700D9
:0802E8004307670B0507760BC5
:0802F0000506780B100C8700D5
:0802F8004307670B05077E0BAD
:080300000506800B450C870087
:080308004307670B000C2700FE
:080310005F00000C0700050668
:080318008B0B05078D0B000C97
:080320002700A109000C2700D1
:08032800A109000C2700A10946
:08033000FF0C07001100E00AB8
:08033800140C290032094606ED
:08034000B00BE9029E0B030063
:0803480064000E04EE044E06F1
:08035000200B1100E00A64001B
:080358002E050E041300850AB6
:080360004607A40B6606B00B72
:080368003C09050C2900640C9E
:0803700028002D0C21002607D6
:08037800B50B01024307BB0BAA
:08038000E802B90BE902B70B1A
:08038800020C2B00320C910065
:080390004306CC0B010C2B000D
:080398001300FE0A0E06E20B41
:0803A000100C2C007109EC02A5
:0803A800D20B8E07E20B020CE0
:0803B0002B00320C9100430602
:0803B800DF0B010C2B00120009
:0803C0005F0B64000E05FF0C49
:0803C8002C007109EC02E50BA9
:0403D00011008A0A84
:080400000506000A00000C00D3
:080408000507040A00022700A9
:08041000A402100C24010506F2
:080418000B0AE902060A0507C0
:080420000F0AFF0C07000D009C
:080428005A00060C0600590001
:08043000400006005B00F30C24
:0804380006005F00640C2B00BC
:08044000FF0C2A00FF0C29004B
:08044800FF0C28002607330A0F
:08045000E802260AE902240A71
:08045800EA02220AEB02200A6D
:080460008A0A2606260AA20CF6
:0804680087004307310A000977
:08047000930C87004307310AD9
:080478000009230C8700430773
:08048000310A6400070C290099
:08048800080C27000506460AD6
:080490000000A20C87004307E5
:08049800460A0009930C8700DD
:0804A0004307460A00090702A8
:0804A8002F00860C8F004306B3
:0804B000760AB50C8F0043062B
:0804B800760AA90C8F0043062F
:0804C000760A1B0C8F004307B4
:0804C800460A0506650A000062
:0804D000A20C87004307650A36
:0804D8000009930C87004307A3
:0804E000650A0009000C870009
:0804E8004307650A140C24000F
:0804F0000506780A0000270C44
:0804F80087004307780A05079D
:080500007F0A07000506820ACC
:08050800110004090E071000A8
:08051000B00B1E0A5900400067
:0805180006005B004E06930A89
:08052000F10C06000300F30CCE
:0805280006000300E2012308B4
:080530008008AC080C0800086B
:08053800000800082408100867
:080540003C08E40824088008CF
:08054800AC08E4082208900849
:08055000AC088408BC08340C5F
:080558002A00CB0A2408100858
:080560003C0874082A08800819
:08056800AC0874082808900893
:08057000AC08BC08D308340CF0
:080578002A00CB0A2408100838
:080580003C08E4082C08800887
:08058800AC08F4082A089008F1
:08059000AC08A408EC08910876
:080598003408000800083008D7
:0805A000AE080C080008000879
:0805A8000008C708020834082E
:0805B00019081908E208BA0855
:0805B80011081908E208BA0855
:0805C0004E07E60A0B0C2800AF
:0805C8003E0C140B310C9000F5
:0805D0004306F30A320C90000F
:0805D8004306F60A350C900001
:0805E0004306F90A010BC00CEF
:0805E8002700FC0AD80C2700D3
:0805F000FC0A0C0C2700FC0AB8
:0805F800070C28002900400057
:08060000140B020C2700170C7B
:0806080028002900370C9000C6
:080610004306100B390C9000A9
:080618004306120B070C140B42
:08062000170C140B6E05270CEA
:080628002A00140C24000A0250
:0806300096092000A402100C41
:080638002401AA02E802170BDD
:080640004E061000AB0B05068D
:08064800230B0000600C870089
:080650004307230B0009000C15
:0806580087004307230B000992
:08066000040C87004307230B83
:080668000009080C870043079C
:08067000230B140C2400050605
:080678003B0B070C8700430750
:080680003B0B0506410B0000D5
:08068800030C87004307410B3E
:080690000507480B05064A0BA3
:08069800240C87004307410B0D
:0806A0000507500B07000506D9
:0806A800530B110004090E06BA
:0806B00010009C0B1000AB0BC5
:08080000E2015D081108240863
:08080800000824089108A4086F
:080810006A08EA081108240837
:0808180040087A089108A408C9
:0808200004083C0811083C0823
:08082800290800083108360818
:08083000EC0823089108AC0854
:080838009108240811083C0896
:08084000B8085E083108360813
:08084800F00823089108AC0838
:080850002908000811083C080A
:08085800BF085E082008A20899
:0808600068081108240834089F
:0808680023089108A4086F08A1
:08087000E908110824086008E2
:080878007D089108A4080408A2
:080880003C0811083C0829089E
:080888000008310836082008C1
:0808900023089108AC08900850
:08089800240811083C0848087F
:0808A0006A083108360824083B
:0808A80023089108AC0829089F
:0808B000000811083C084F0884
:0808B8006A082008A20870087C
:0808C000110824080C082508AA
:0808C8009108A408F108E908F9
:0808D0001108240830087D081E
:0808D8009108A40804083C0883
:0808E00011083C08290800087A
:0808E80031083608F808240865
:0808F0009108AC0890082408EF
:0808F80011083C08D808710842
:0809000031083608FC08240848
:080908009108AC082908000861
:0809100011083C08DF08710822
:080918002008A2082B0890083A
:08092000A408210800081008DA
:080928003C08D408E5081108A1
:080930002408040894081108D2
:08093800A6089008240811082C
:080940003C0888087E0831081C
:0809480036085C082B08910839
:08095000AC08B008AF08110863
:080958003C080008000831080A
:08096000360860082B0891081D
:08096800AC082A080008110880
:080970003C088F087E082008F6
:08097800A2082D089008A40854
:080980002108000810083C08E2
:08098800D808E3081108240857
:0809900064089E081108A60886
:080998009008240811083C0836
:0809A000F808C108310836080F
:0809A800CC082D089108AC08F1
:0809B000B008AF0811083C0873
:0809B8000008000831083608B0
:0809C000D0082D089108AC08D5
:0809C8002B08000811083C088F
:0809D000FF08C1082008A2087D
:0809D8000506EC0A00000E0503
:0809E0002F0C28002900320C45
:0809E800900043060B0B350CD7
:0809F000900043060F0B360CCA
:0809F80090004306130B370CBD
:080A000090004306170B390CAE
:080A0800900043061B0BB80C23
:080A1000270040002C0B380CFC
:080A1800270040001E0BB80C82
:080A200027002F0C1E0B480CEF
:080A280027005E0C1E0B680C98
:080A300027008D0C1E0BD80CF1
:080A38002700BC0C2A00140C7D
:080A400024000A020009200055
:080A4800A402100C2401AA0213
:080A5000E802210B1100230B49
:080A58002A00140C24000A021C
:080A60001000A5092000A4020A
:080A6800100C2401AA02E802AF
:080A70002F0B1100230B0506FA
:080A78003B0BFF0C8700430754
:080A80003B0BEC097F0C870021
:080A880043073B0BEC09A50C30
:080A9000870043073B0BEC0952
:080A980007022F00340C8F004F
:080AA000430713008A0A4E050A
:080AA800000C27005F00FB0CAD
:080AB000060000000000FF0C2D
:080AB80006001000A40B3C0C29
:080AC0002700140C24000B0CAC
:080AC80029000506650B110C65
:080AD00087004307650BEC09E8
:080AD800110C87004307650BB8
:080AE000EC09000C870043073C
:080AE800650BEC09090C870005
:080AF0004307650B05067A0BB4
:080AF8000000300C87004307E9
:080B00007A0B0507810B0700C9
:080B08000506840B110004092D
:080B1000EB025F0B6400340CE2
:080B18002800180C2A002B0034
:080B20000506900BFD0C870097
:080B28004307900B0507960B33
:080B30000506980BFF0C87007D
:080B38004307900B05079E0B1B
:080B40000506A00B850C8700DF
:080B48004307900B0507A60B03
:080B50000506A80B140C870038
:080B58004307900B0507AE0BEB
:080B60000506B00BE802AE0B24
:080B6800030C27000507B60B82
:080B7000000C0700EC09800CE9
:080B78002700EC09040C270022
:080B8000EC093C0C2700EC0914
:080B8800FF0C07000507C60B76
:080B90000506C80BEA02C60BC2
:080B9800000C27000507CE0B3D
:080BA000000C0700EC09000C39
:080BA8002700EC09000C2700F6
:080BB000EC09000C2700EC0920
:080BB800FF0C07000507DE0B2E
:080BC0000506E00BEB02DE0B61
:080BC800880C27000507E60B6D
:080BD000000C0700EC09020C07
:080BD8002700EC09800C270046
:080BE000EC09A40C2700EC094C
:080BE800FF0C07001000E20BF6
:080C00000506000A00000C00CB
:080C0800E2010008E008030806
:080C10000008000800080008BC
:080C180020083808110800084B
:080C2000000860080308240825
:080C280000080008E208900832
:080C300000080008E408900828
:080C3800FF08FF08630824080F
:080C40002608200882080008C4
:080C480000080008E408A00800
:080C5000FB08FF08610804081D
:080C580001080008E708240868
:080C6000360C2A006E063B0A67
:080C6800310C2A00D0088008BD
:080C7000380C2A003D0A50086F
:080C780081088008AF082E0876
:080C80000108220892082F0868
:080C8800010823089208260868
:080C90001008430800081A08CF
:080C980000080308240803080A
:080CA0000008430814080108D4
:080CA8000008070824086C0C89
:080CB0002A006E06710A580CBF
:080CB8002A00BD08050804082C
:080CC0000808CC088008870831
:080CC800AF080008000807084E
:080CD0002408BD080508040812
:080CD8000808CC088008870819
:080CE000AF08AF080508040885
:080CE80008084C088108870888
:080CF000AF0800080008070826
:080CF8002408AF0805080408F8
:080D000008084C08810887086F
:080D0800AF08070C28002900C8
:080D100040008D0A5B0C280075
:080D180040002A00140C240025
:080D20000A0204092000A402EC
:080D2800100C2401AA02E802EC
:080D3000900A6400090611009D
:080D3800410A570C29006E0668
:080D4000B40A570C2900050656
:080D4800A30AAF0C870043076A
:080D5000A30A00091E0C870034
:080D58004307A30A0009080C7F
:080D600087004307A30AC60A3D
:080D68000506B40A0000AF0CFF
:080D700087004307B40A0009E3
:080D7800060C87004307B40AD2
:080D80000009080C870043077D
:080D8800B40AC60A180C24008D
:080D9000000C27000506CA0A49
:080D98000C0C87004307CA0A96
:080DA0000507D00A000C070052
:080DA8000506D40A110004093C
:080DB000EB02A10A0E0511007F
:080DB8001E0AE2013B08A0083D
:080DC000330828082008FF0891
:080DC800040841084408FD087D
:080DD00013082B08610822083A
:080DD800130831088C08B00873
:080DE00003083A08310833084A
:080DE800190891082506F60A1E
:080DF000650400006505E8023E
:080DF800F60A0C00650400007E
:080E000065052506010B6504E0
:080E080006026505B00E2F0083
:080E1000A00C8F004307010B49
:080E180025060C0B650406021F
:080E20006505B00E2F00B00CB7
:080E28008F0043061B0B000CB8
:080E30008F004307010B2506AA
:080E38001B0B650406026505B1
:080E4000B00E2F00B00C8F0072
:080E480043063B0BA00C8F00D8
:080E50004307010BEE062E0B17
:080E58004E068A0A100C280066
:080E6000F609400026005F00C6
:080E68001E0C0600040C28001A
:080E7000F609FF0C060026073D
:080E7800DD0B25063B0B6504B0
:080E800000006505E606860688
:080E88003B0B2607DD0B2506DC
:080E9000450B65040000650537
:080E9800E60686073B0B260766
:080EA000DD0B25064F0B650474
:080EA80000006505E60686075F
:080EB0003B0B2607DD0B2506B4
:080EB800590B650400006505FB
:080EC000E60786063B0B26073E
:080EC800DD0B2506630B650438
:080ED00000006505E607860736
:080ED8003B0B2607DD0B25068C
:080EE0006D0B650400006505BF
:080EE800E60786073B0B260715
:080EF000DD0B2506770B6504FC
:080EF80000006505E60786060F
:080F00003B0BEE06860B4E06CA
:080F08001000CE0B900C260036
:080F10005F006F0C25068A0B3F
:080F18006504000065050600F8
:080F20002506900B6504FF0C8F
:080F280006006505AE069E0BF4
:080F30008E069C0B100C9F0BB8
:080F3800080C9F0B400029008A
:080F4000080C2A00FF0C26003A
:080F4800030C28002506A60B8E
:080F5000650400006505E606DA
:080F58008606A60B2506AE0B70
:080F6000650400006505E606CA
:080F68008607A60B2506B60B57
:080F7000650400006505E606BA
:080F78008607A60BE802A60B98
:080F80005F000F0C06000902DE
:080F8800DD092506C50B26005A
:080F900065042F008F036505C5
:080F98002506CC0B26006504C0
:080FA000A9026505EA02C30B7A
:080FA800FF0C2506D50B060025
:080FB0006504000065052E0632
:080FB8003B0B65042E040E063C
:080FC00011001E0A12003B0B98
:020FFE00120AD5
:08200000F40FF90FF40FF30FC8
:08200800F40FF50FF50FF20FC4
:08201000F40FF50FF50FF60FB8
:08201800FF0FFF0FFF0FFF0F88
:10202000F9077F0FFFFF02ABFA0280F0FFFF00000D
:00000001FF
