:020000040000FA
:100000002500CF0A43084F085008590852084908EC
:10001000470848085408B808320830083008300843
:100020003E0832083008300831082E0850084C08C5
:1000300041085908530854084108590853085408FE
:1000400049084F084E084D084F08440853082E0829
:1000500043084F084D082E082E0826084D08520860
:100060002E08540840084408560844084D084F0814
:10007000440853082E0843084F082E0855084B081B
:10008000080C3100700303065B0A3B0C0600480AAB
:10009000490A390C06004C0A4D0AF102420A3B0C8F
:1000A0000600520A530A540A550A560A390C060029
:1000B000590A5A0A00083D0C06005E0A5F0A3F0C06
:1000C0000600620A630A3D0C0600660A670A390CDC
:1000D00006006A0A6B0AF102420A3B0C0600700A2B
:1000E000710A720A730A740A390C0600770A780AD0
:1000F0000008420C2F006600C00C02003B0C0600FA
:10010000810A820A830A840A850A390C0600880A51
:10011000890A0F02300040090C02300040090E022B
:10012000300040093B0C0600950A960A970A980A87
:10013000990A3F0C06009C0A9D0A6600800C02008A
:10014000640C3300C209A50900086600C70C020050
:100150003F0C06006E006C006F000008870C020068
:100160003F0C060066006E00700074006F006C00AB
:100170006A0000086100E107BB0AF102BA0A2F0C0D
:1001800006000008C80C3400000000000000000059
:1001900000000000F402C40AF302C20A0008AE091B
:1001A0004607D00A050C3100BA092606D50A1E0CEE
:1001B0003100BA0966003F0C0600A70C2C00000CA9
:1001C0002E007909A80C2C00000C2E0079093F0C98
:1001D00006000000D50AFF0FFF0FFF0FFF0FFF0FF4
:1001E000FF0FFF0FFF0FFF0FFF0FFF0FFF0FFF0F9F
:1001F000FF0FFF0FFF0FFF0FFF0FFF0FFF0FFF0F8F
:10020000FF0FFF0FFF0FFF0FFF0FFF0FFF0FFF0F7E
:10021000FF0FFF0FFF0FFF0FFF0FFF0FFF0FFF0F6E
:1003F000FF0FFF0FFF0FFF0FFF0FFF0FFF0F600C2F
:080400000F000F000F000F00B8
:021FFE00EA0FE8
:00000001FF
