:040000002500200AAD
:1000100020084D084108430852084F0820082008CE
:10002000520845084D084F08560845085208200850
:1000300020082008560834082E0836082008200812
:100040000F0C06006600C00C02006A006900680020
:10005000A6050A05660946064B0A0907310A290260
:100060006A020A07400A340A46040904130C5509B7
:10007000ED0C7D090F0C8709190C7D0986052A0AEC
:100080000B0C0600460509040A0C5509EB0C7D090A
:10009000070C86056D0A0904120C7D09780C7D0990
:1000A0001E0C86057D0986042A0A2800A605260658
:1000B000560A2607590AA6040E0C7909E802560AC0
:1000C00064090008A6040008A60500080606660ADA
:1000D000A605500C790986042B0A960C2B00EB021E
:1000E000720A090506066F0AA605640C79098604DA
:1000F0002D0A2700E7027A0A0008280026067E0A51
:100100002607800A0C0C7909E8027E0A00082800FC
:100110002606880A26078A0A06070905050C7909B2
:06012000E802880A000855
:021FFE00EA0FE8
:00000001FF
