:020000002028B6
:1000100020344D344134433452344F34203420346E
:10002000523445344D344F345634453452342034F0
:1000300020342034563434342E34363420342034B2
:100040008B1383160313F83086001F30850083124C
:10005000031386018F018E018D0186140F147428FD
:10006000061A54280E1C36288E088F090F1C4528A6
:10007000392806120E1013305E20ED3095200F3017
:100080009F201930952006152F288316E83086000A
:10009000831206160E100B305E20EB3095200B30CD
:1000A00006159520061183280E1012309520783001
:1000B00095201E300615952006112F288D007220E0
:1000C000861A5F28861E62280000000000000000DB
:1000D00000008610303091208D0B5F2872200800C0
:1000E0008610080086140800061B74287220093048
:1000F0007A2030288D00861A7B28861E7D288D0B5D
:100100007B2806110800FF309000900B88280E1401
:10011000061B85287220061F8B2806116930912046
:1001200032288C008C0B922808008D00861A9628A5
:10013000861E9828233091208D0B962808008D006C
:10014000861AA028861EA2281930A9208D0BA02867
:0E01500008008C00061F0E148C0BAA28080055
:02400E000A00A6
:00000001FF
