:080000005F00FF0C0700FF0C7C
:080008000600FF0C05005A0080
:08001000080C06005900400035
:0800180006005B00F30C06007A
:080020005F0003005D00F70C16
:0800280006005E00EF0C06006B
:080030005F00070C0500FF0C46
:080038000600FF0C0700C70CD5
:08004000020059004000060017
:080048003B005F006306310A72
:080050005B06790B66067F0BCD
:080058003B0613003F0B1300EF
:080060006F0B7A00CB0A640C5F
:0800680028002D0C210001020B
:080070004307370AE802350AD4
:080078000C005A00040C060004
:080080005900400006005B007E
:08008800F30C06005F000C0000
:0800900045053B0C2A00E50CBC
:0800980029006502030C280099
:0800A000E802500AE9024E0AD1
:0800A800EA024B0A0C004504BA
:0800B0003B0C2A00E50C2900BD
:0800B800030C2800E8025E0AB7
:0800C000E9025C0AEA025A0A97
:0800C8000C00E201530843089B
:0800D0004508410853084308EC
:0800D8004508490853084308DC
:0800E00045084508410C95009C
:0800E80043067F0A450C950058
:0800F0004306810A520C950041
:0800F8004306810A840A70002E
:08010000860A080C3000860A93
:08010800040C30005F000B0C39
:080110000500040C2C00100294
:0801180065092D006D02080CC1
:080120002E0057095709480998
:080128002D0303069A0A0307E8
:0801300057099B0A4809EE0281
:08013800940AB002EC028B0AEC
:080140004504160C2B005709C1
:08014800EB02A30A5F000F0C9B
:0801500005000C000506AA0AD7
:0801580000000C000506AE0AD0
:080160000000600C870043075A
:08016800AE0AAA09000C870091
:080170004307AE0AAA09040CC2
:0801780087004307AE0AAA0943
:08018000080C87004307AE0ADA
:08018800370C9600430611003C
:080190007F0B12008F0B050626
:08019800CB0A0000530C8700A4
:0801A0004307CB0AAA09320C47
:0801A80087004307CB0AAA09F6
:0801B000300C87004307CB0A65
:0801B800AA09310C870043077E
:0801C000CB0AAA090702360070
:0801C8000506E40A300C870073
:0801D0004307E40AAA09070233
:0801D80035004606790B05060F
:0801E000EF0A0000DC0C8700AF
:0801E8004307EF0A0507F60AC0
:0801F0000506F80A240C870043
:0801F8004307EF0A0507FE0AA8
:080200000506000B100C87003D
:080208004307EF0A0507060B8E
:080210000506080B450C8700F0
:080218004307EF0A000C270068
:080220005F00000C0700050659
:08022800130B0507150B000C78
:080230002700AA09000C2700B9
:08023800AA09000C2700AA0925
:08024000FF0C07000506220B6C
:080248000000660C870043076B
:08025000220B0507290B05062E
:080258002B0BBD0C87004307CE
:08026000220B0507310B050616
:08026800330B090C870043076A
:08027000220B000C27005F00C7
:08027800000C070005063E0B17
:080280000507400B000C2700EC
:08028800AA09FF0C070005069E
:08029000470B0000090C870078
:080298004307470B000C27008F
:0802A0005F00000C07000506D9
:0802A800530B0507550B000C78
:0802B0002700AA09FF0C07005A
:0802B80005065C0B0000050CBB
:0802C000870043075C0B000CF2
:0802C80027005F00000C070095
:0802D0000506680B05076A0B27
:0802D800000C2700AA09FF0C2D
:0802E0000700140C290033098A
:0802E80046067C0BE902730BD2
:0802F00003005A06EF0AAE0AF2
:0802F8005A053A051A044607F5
:08030000790B66067F0B3D0935
:08030800050C2900640C28001B
:080310002D0C21002607840BCF
:08031800010243078A0BE80211
:08032000880BE902860B1300B3
:080328003D0A1A06A30B150C97
:0803300032007209F202990B80
:080338003C0C27005F001200DD
:08034000040913007B0BFF0C04
:0803480032007209F202A50B5C
:0403500013006F0B1C
:080400000506000A00000C00D3
:080408000506040A0000A20C25
:0804100087004307040A0009FC
:08041800930C87004307040A5E
:080420000009070238001B0C63
:0804280098004307040A0506D1
:08043000170A0000A20C87006E
:080438004307170A0009930CA9
:0804400087004307170A0009B9
:08044800000C87004307170AAE
:080450000506280A0000270C34
:0804580087004307280A080C85
:0804600027005F00000C0700FB
:080468000506340A0507360AF7
:08047000000C27000009E00C5C
:0804780027000009030C270016
:080480000009000C270000092F
:08048800000C27000009000C24
:0804900027000009000C270001
:0804980000095F00FF0C0700E2
:0804A0000D000506510A0000E1
:0804A800AF0C87004307510A65
:0804B00000091E0C8700430740
:0804B800510A0009080C87003D
:0804C0004307510A66091A0501
:0804C8001300490B0506660A4A
:0804D00000000C0C870043073B
:0804D800660A000C27005F001A
:0804E000000C07000506720A7A
:0804E8000507740A000C27004F
:0804F0000009000C27000009BF
:0804F800000C27000009200C94
:0805000027000009380C270058
:080508000009110C2700000995
:08051000000C27000009000C9B
:0805180027000009600C270018
:080520000009030C270000098B
:08052800240C27000009000C5F
:0805300027000009000C270060
:080538000009E20C2700000994
:08054000900C27000009000CDB
:0805480027000009000C270048
:080550000009E40C270000097A
:08055800900C27000009FF0CC4
:0805600027000009FF0C270031
:080568000009630C27000009E3
:08057000240C27000009260CF1
:0805780027000009200C2700F8
:080580000009820C27000009AC
:08058800000C27000009000C23
:0805900027000009000C270000
:080598000009E40C2700000932
:0805A000A00C27000009FB0C70
:0805A80027000009FF0C2700E9
:0805B0000009610C270000099D
:0805B800040C27000009010CEE
:0805C00027000009000C2700D0
:0805C8000009E70C27000009FF
:0805D000240C27000009D00CE7
:0805D80027000009800C270038
:0805E0000009800C270000094E
:0805E800AF0C270000092E0CE6
:0805F00027000009010C27009F
:0805F8000009220C2700000994
:08060000920C270000092F0CE9
:0806080027000009010C270086
:080610000009230C270000097A
:08061800920C27000009260CDA
:0806200027000009100C27005F
:080628000009430C2700000942
:08063000000C270000091A0C60
:0806380027000009000C270057
:080640000009030C270000096A
:08064800240C27000009030C3B
:0806500027000009000C27003F
:080658000009430C2700000912
:08066000140C27000009010C35
:0806680027000009000C270027
:080670000009070C2700000936
:08067800240C27000009BD0C51
:0806800027000009050C27000A
:080688000009040C2700000921
:08069000080C27000009CC0C46
:0806980027000009800C270077
:0806A0000009870C2700000986
:0806A800AF0C27000009000C53
:0806B00027000009000C2700DF
:0806B8000009070C27000009EE
:0806C000240C27000009BD0C09
:0806C80027000009050C2700C2
:0806D0000009040C27000009D9
:0806D800080C27000009CC0CFE
:0806E00027000009800C27002F
:0806E8000009870C270000093E
:0806F000AF0C270000095F00B8
:0806F800FF0C07000C000506D1
:080700007F0B0000070C8700CD
:0807080043077F0B0506860B79
:08071000030C87004307860B70
:080718000009240C87004307CF
:08072000860B020C27005F00AC
:08072800000C07000506960B0A
:080730000507980B240C2700BB
:080738000009100C2700000964
:080740003C0C27000009740CB9
:08074800270000092A0C27001C
:080750000009800C27000009DC
:08075800AC0C27000009740C31
:0807600027000009280C270006
:080768000009900C27000009B4
:08077000AC0C27000009BC0CD1
:0807780027000009D30C270043
:080780000009910C270000099B
:08078800340C27000009000CED
:0807900027000009000C2700FE
:080798000009300C27000009E4
:0807A000AE0C270000090C0C4F
:0807A80027000009000C2700E6
:0807B0000009000C27000009FC
:0807B800000C270000095F009E
:0807C000FF0C070010007D0B87
:080800000506000A00000C00CF
:080808000506040A110C87002B
:080810004307040A05070A0A68
:0808180005060C0A110C870013
:080820004307040A0507120A50
:080828000506140A000C87000C
:080830004307040A05071A0A38
:0808380005061C0A090C8700EB
:080840004307040A0506220A21
:080848000000300C870043079B
:08085000220A0507290A000C29
:08085800070005062D0A050743
:080860002F0AC70C2700000954
:08086800020C27000009340C0A
:0808700027000009190C270004
:080878000009190C270000091A
:08088000E20C27000009BA0C8C
:0808880027000009110C2700F4
:080890000009190C2700000902
:08089800E20C27000009BA0C74
:0808A00027000009FF0C07000E
:0808A8000D000506550A0000D1
:0808B000AF0C87004307550A55
:0808B80005075C0A05065E0A53
:0808C000060C87004307550AEE
:0808C8000507640A0506660A33
:0808D000080C87004307550ADC
:0808D80005076C0A05066E0A13
:0808E000040C87004307550AD0
:0808E8000507740A0506760AF3
:0808F0000C0C87004307550AB8
:0808F8005F00000C2700000C5A
:0809000007000506810A050746
:08090800830A000C270000091E
:08091000000C27000009000C97
:0809180027000009200C270054
:080920000009380C2700000952
:08092800110C27000009000C6E
:0809300027000009000C27005C
:080938000009600C2700000912
:08094000030C27000009240C40
:0809480027000009000C270044
:080950000009000C270000095A
:08095800E20C27000009900CDD
:0809600027000009000C27002C
:080968000009000C2700000942
:08097000E40C27000009900CC3
:0809780027000009FF0C270015
:080980000009FF0C270000092B
:08098800630C27000009240C98
:0809900027000009260C2700D6
:080998000009200C27000009F2
:0809A000820C27000009000C85
:0809A80027000009000C2700E4
:0809B0000009000C27000009FA
:0809B800E40C27000009A00C6B
:0809C00027000009FB0C2700D1
:0809C8000009FF0C27000009E3
:0809D000610C27000009040C72
:0809D80027000009010C2700B3
:0809E0000009000C27000009CA
:0809E800E70C27000009240CB4
:0809F00027000009500C27004C
:0809F8000009810C2700000931
:080A0000800C27000009AF0C77
:080A0800270000092E0C270055
:080A10000009010C2700000998
:080A1800220C27000009920CDA
:080A2000270000092F0C27003C
:080A28000009010C2700000980
:080A3000230C27000009920CC1
:080A380027000009260C27002D
:080A40000009100C2700000959
:080A4800430C27000009000C1B
:080A5000270000091A0C270021
:080A58000009000C2700000951
:080A6000030C27000009240C1F
:080A680027000009030C270020
:080A70000009000C2700000939
:080A7800430C27000009140CD7
:080A800027000009010C27000A
:080A88000009000C2700000921
:080A9000070C27000009240CEB
:080A980027000009AF0C270044
:080AA0000009050C2700000904
:080AA800040C27000009080CF2
:080AB000270000094C0C27008F
:080AB8000009810C2700000970
:080AC000870C27000009AF0CB0
:080AC80027000009000C2700C3
:080AD0000009000C27000009D9
:080AD800070C27000009240CA3
:080AE00027000009AF0C2700FC
:080AE8000009050C27000009BC
:080AF000040C27000009080CAA
:080AF800270000094C0C270047
:080B00000009810C2700000927
:080B0800870C27000009AF0C67
:080B100027000009FF0C07009B
:080B18001A051300490B050644
:080B20008F0B0000070C870099
:080B280043078F0B0507960B34
:080B30000506980B000C87007C
:080B380043078F0B05079E0B1C
:080B40000506A00B030C870061
:080B480043078F0B0507A60B04
:080B50000506A80B240C870028
:080B580043078F0B020C27007C
:080B60005F00000C0700050610
:080B6800B30B0507B50B240CCB
:080B700027000009100C27000A
:080B780000093C0C27000009F4
:080B8000E40C270000092C0C15
:080B880027000009800C270082
:080B90000009AC0C270000096C
:080B9800F40C270000092A0CEF
:080BA00027000009900C27005A
:080BA8000009AC0C2700000954
:080BB000A40C27000009EC0C65
:080BB80027000009910C270041
:080BC0000009340C27000009B4
:080BC800000C27000009000CDD
:080BD00027000009300C27008A
:080BD8000009AE0C2700000922
:080BE0000C0C27000009000CB9
:080BE80027000009000C2700A2
:080BF0000009000C27000009B8
:080BF800FF0C070010007D0B4B
:080C00000506000A00000C00CB
:080C0800E2012F08AF08BA0851
:080C100002082F082D082C0832
:080C180094082C081E08E108F5
:080C2000E1081C084A084A081B
:080C2800010854085408F30808
:080C3000DB0815082F08360847
:080C3800A9086C080F0834083C
:080C400034080F082108210807
:080C480001088608C608A50892
:080C5000140806082B082B080C
:080C5800B80833080B082D0851
:080C60002D080B089B089B08FE
:080C680001082506350A6504A8
:080C700000006505E802350AE9
:080C78000C0065040000650595
:080C80002506400A650400008E
:080C88006505F60C8600430728
:080C9000400A2506490A65042B
:080C980000006505F70C860061
:080CA0004306560A160C8600FB
:080CA8004307400A2506560A25
:080CB000650400006505F70C66
:080CB80086004306880AF60CD1
:080CC00086004307400A5A06B2
:080CC8006F0B100C2800350928
:080CD000000C26005F001F0C60
:080CD80025066C0A650400000A
:080CE000650506002506720AF5
:080CE800650400006505250606
:080CF000770A650400006505A8
:080CF80025067C0A65040000DA
:080D000065052506810AFF0CC0
:080D080006006504000065050A
:080D10005A061000950B26079E
:080D1800330B25068B0A65046C
:080D200000006505F60C8600D9
:080D280043078B0A2607330B79
:080D30002506960A6504000087
:080D38006505F70C8600430776
:080D40008B0A2607330B250680
:080D4800A10A65040000650525
:080D5000F70C860043078B0A33
:080D58002607330B2506AC0A47
:080D6000650400006505160C96
:080D6800860043078B0A2607F1
:080D7000330B2506B70A6504E8
:080D780000006505170C860060
:080D800043078B0A2607330B21
:080D88002506C20A6504000003
:080D90006505170C86004307FE
:080D98008B0A2607330B250628
:080DA000CD0A650400006505A1
:080DA800160C860043078B0ABC
:080DB000810C26005F007E0C9F
:080DB8002506DC0A65040000B9
:080DC000650506002506E20AA4
:080DC8006504FF0C060065053F
:080DD000410C95004306F80AEE
:080DD800450C95004306F60AE4
:080DE000520C95004306F60ACF
:080DE800200CF90A100CF90AB5
:080DF00040003000100C31003E
:080DF800FF0C2600030C28008B
:080E00002506000B650400004B
:080E08006505F60C86004307A6
:080E1000000B2506090B650427
:080E180000006505F70C8600DF
:080E20004307000B2506120B2D
:080E2800650400006505F70CEC
:080E300086004307000BE802F5
:080E3800000B5F001E0C060018
:080E4000100204092506220B33
:080E480026006504B0026505F7
:080E5000F102200BFF0C250646
:080E58002B0B060065040000ED
:080E600065053A068B0A6504E2
:080E68003A041A061300490BBD
:080E7000370C96004306110047
:080E7800510A1200550A5A004C
:080E8000060C060059004000B9
:080E880006005B00F30C0600FC
:080E90005F00640C3300FF0C4D
:080E98002A00FF0C2900FF0CE9
:080EA000280026075E0BE802A2
:080EA800510BE9024F0BEA02B5
:080EB0004D0BF3024B0B6F0B1D
:080EB8002606510BA20C870075
:080EC00043075C0B0009930CD1
:080EC800870043075C0B0009E1
:080ED000230C870043075C0BB3
:080ED80011000409490B590047
:080EE000400006005B005A0609
:080EE800780BF10C0600030079
:080EF000F30C06000300340CB2
:080EF8002800180C2900180C59
:080F00002A000506810B000028
:080F0800FD0C87004307810B7B
:080F10000507880B05068A0B9A
:080F1800FF0C87004307810B69
:080F20000507900B0506920B7A
:080F2800850C87004307810BD3
:080F30000507980B05069A0B5A
:080F3800140C87004307810B34
:080F40000507A00B0506A20B3A
:080F4800E802A00B030C2700D6
:080F50000507A80B000C0700C7
:080F58000009800C27000009CC
:080F6000040C270000093C0C01
:080F680027000009FF0C07003F
:080F70000507B80B0506BA0BDA
:080F7800E902B80B000C270090
:080F80000507C00B000C07007F
:080F88000009000C270000091C
:080F9000000C27000009000C11
:080F980027000009FF0C07000F
:080FA0000507D00B0506D20B7A
:080FA800EA02D00B880C2700BF
:080FB0000507D80B000C070037
:080FB8000009020C27000009EA
:080FC000800C27000009A40CBD
:080FC80027000009FF0C0700DF
:060FD0001A051000A30B3E
:020FFE00120AD5
:08200000F40FF40FF50FF60FC9
:08200800F40FFD0FF30FF30FBD
:08201000F20FFD0FF50FF60FB2
:08201800F30FF90FFF0FFF0F9A
:10202000F9077F0FFFFF02ABFA0280F0FFFF00000D
:00000001FF
