:100000002500420A0702E20143084F085008590838
:1000100052084908470848085408B8083208300808
:10002000300830083E0832083008300831082E0801
:1000300050084C0841085908530854084108590809
:100040005308540849084F084E084D084F08440803
:1000500053082E0843084F084D082E082E0826087E
:100060004D0852082E085408400844085608440811
:100070004D084F08440853082E0843084F082E081F
:1000800055084B08770079007F006A00EC0A66008B
:10009000C70C0200FF0C0600A6074C0A66064E0AB3
:1000A000140C3700FF096606050BC80C3700FF0962
:1000B0006606420A66075A0AE90C06002C0C2A005A
:1000C0008605640C3700FF09860526054604170CD3
:1000D0003F008B098604260C3F008B09EA02640A64
:1000E000FF0C06005A0C3700FF092D0C2A00E90C02
:1000F00006008605260446051E0C3F008B09860473
:10010000190C3F008B09EA02790AFF0C0600050B67
:10011000880A0000890A7900C80C39000000F90239
:100120008E0AFF028C0A0008320C3000FA0C3100F3
:100130000000F102980AF002960A000877003700E2
:100140004A0C9509040C3F001302C30932007202E5
:10015000080C2900FF0C0600040C95093203A604C4
:100160000306FF0C0307DF0C0600040C9509E902E7
:10017000AE0ADF0C0600080C9509B302FF02A40AC0
:10018000F702A00A0308E20153084308450849089A
:1001900053084308450849085308430845084908D7
:1001A0000000000050084C08410859085308540842
:1001B00041085908540849084F084D084F08440899
:1001C00053082E0843084F084D0841084E084408BC
:1001D0005F084D0852085408750067007400020C4F
:1001E00027001E0C35000209B401A70243040304D2
:1001F000F502F30AFA0C94014307890A470A6100E1
:10020000E107000BF702FF0A0008FF0C06000F0CC5
:100210003700FF090606050B7300030C9E09050B4A
:1002200000000000000000000000000000000000CE
:1002300000000000000000000000000000000000BE
:1002400000000000000000000000000000000000AE
:10025000000000000000000000000000000000009E
:10026000000000000000000000000000000000008E
:10027000000000000000000000000000000000007E
:10028000000000000000000000000000000000006E
:10029000000000000000000000000000000000005E
:1002A000000000000000000000000000000000004E
:1002B000000000000000000000000000000000003E
:1002C000000000000000000000000000000000002E
:1002D000000000000000000000000000000000001E
:1002E000000000000000000000000000000000000E
:1002F00000000000000000000000000000000000FE
:1003000000000000000000000000000000000000ED
:1003100000000000000000000000000000000000DD
:1003200000000000000000000000000000000000CD
:1003300000000000000000000000000000000000BD
:1003400000000000000000000000000000000000AD
:10035000000000000000000000000000000000009D
:10036000000000000000000000000000000000008D
:10037000000000000000000000000000000000007D
:10038000000000000000000000000000000000006D
:10039000000000000000000000000000000000005D
:1003A000000000000000000000000000000000004D
:1003B000000000000000000000000000000000003D
:1003C000000000000000000000000000000000002D
:1003D000000000000000000000000000000000001D
:1003E000000000000000000000000000000000000D
:1003F0000000000000000000000000000000000CF1
:00000001FF
