:100000002500000B7008730832082E082E082E08F1
:1000100056084508520820083808360854082008B1
:0800200043084A084E08FF08DE
:10008000320C3100C70C320000000400F202440AB6
:100090000000F102420A03080606500AEC020308B7
:1000A0003F0C06008607520AFA0C41098607520ADD
:1000B0008606580A180C2B00FA0C4109EB025C0A60
:1000C0000606520A1B0B2D00480C4109040C2E0099
:1000D0001402890933007302080C2F00350515023C
:1000E0000600040C41093303F80C2600030635050D
:1000F0000307350415020600040C4109EF02730AD8
:10010000350415020600080C4109B402EE02680A23
:100110000308E2015308430845084508530843080B
:0C012000450845085308430845084508F9
:10020000C20C0200FF0C35000600020C2D00400954
:10021000ED02070B060C2D004009ED020C0B0E0C35
:1002200041096606280B960C2D006606280B40092E
:10023000ED02150B2B0B26043504150206004009B0
:10024000640C2C0006064C0A740063094C09220B4E
:100250003F0C0600030066072B0BAA0C2B00000CBA
:100260002600000C0600320C4109000C2600000C90
:100270000600320C4109EB022F0B410BFF0C35003D
:100280000600500C2B00240C2600DB0C06000A0C88
:100290004109200C26001B0C06000A0C4109EB0248
:1002A000430B3F0C0600100C2B00FA0C4109EB022B
:1002B000550B500C2B00140C2600EB0C06000A0CFE
:1002C0004109100C2600EB0C06000A0C4109EB0258
:0802D0005B0B3F0C0600280B3C
:021FFE00E20FF0
:00000001FF
